{
  "contracts/Plagiarism.sol": {
    "Plagiarism": {
      "abi": [
        {
          "inputs": [],
          "stateMutability": "nonpayable",
          "type": "constructor"
        },
        {
          "inputs": [],
          "name": "c",
          "outputs": [
            {
              "internalType": "bytes32",
              "name": "",
              "type": "bytes32"
            }
          ],
          "stateMutability": "view",
          "type": "function"
        },
        {
          "inputs": [],
          "name": "code_similarity",
          "outputs": [
            {
              "internalType": "uint256",
              "name": "",
              "type": "uint256"
            }
          ],
          "stateMutability": "view",
          "type": "function"
        },
        {
          "inputs": [],
          "name": "d",
          "outputs": [
            {
              "internalType": "bytes32",
              "name": "",
              "type": "bytes32"
            }
          ],
          "stateMutability": "view",
          "type": "function"
        },
        {
          "inputs": [],
          "name": "e",
          "outputs": [
            {
              "internalType": "bool",
              "name": "status",
              "type": "bool"
            }
          ],
          "stateMutability": "view",
          "type": "function"
        },
        {
          "inputs": [],
          "name": "eqn_count",
          "outputs": [
            {
              "internalType": "uint256",
              "name": "",
              "type": "uint256"
            }
          ],
          "stateMutability": "view",
          "type": "function"
        },
        {
          "inputs": [
            {
              "internalType": "uint256",
              "name": "",
              "type": "uint256"
            }
          ],
          "name": "eqn_map",
          "outputs": [
            {
              "internalType": "bool",
              "name": "",
              "type": "bool"
            }
          ],
          "stateMutability": "view",
          "type": "function"
        },
        {
          "inputs": [
            {
              "internalType": "uint256",
              "name": "",
              "type": "uint256"
            },
            {
              "internalType": "uint256",
              "name": "",
              "type": "uint256"
            }
          ],
          "name": "eqn_sym",
          "outputs": [
            {
              "internalType": "uint256",
              "name": "",
              "type": "uint256"
            }
          ],
          "stateMutability": "view",
          "type": "function"
        },
        {
          "inputs": [
            {
              "internalType": "uint256",
              "name": "",
              "type": "uint256"
            },
            {
              "internalType": "uint256",
              "name": "",
              "type": "uint256"
            }
          ],
          "name": "eqn_var",
          "outputs": [
            {
              "internalType": "uint256",
              "name": "",
              "type": "uint256"
            }
          ],
          "stateMutability": "view",
          "type": "function"
        },
        {
          "inputs": [
            {
              "internalType": "string",
              "name": "new_code",
              "type": "string"
            },
            {
              "internalType": "string",
              "name": "unique_code",
              "type": "string"
            }
          ],
          "name": "getSimilarity",
          "outputs": [
            {
              "internalType": "uint256",
              "name": "",
              "type": "uint256"
            }
          ],
          "stateMutability": "nonpayable",
          "type": "function"
        },
        {
          "inputs": [],
          "name": "st_count",
          "outputs": [
            {
              "internalType": "uint256",
              "name": "",
              "type": "uint256"
            }
          ],
          "stateMutability": "view",
          "type": "function"
        },
        {
          "inputs": [
            {
              "internalType": "uint256",
              "name": "",
              "type": "uint256"
            }
          ],
          "name": "st_map",
          "outputs": [
            {
              "internalType": "uint256",
              "name": "keyWord",
              "type": "uint256"
            },
            {
              "internalType": "string",
              "name": "paretnthesis",
              "type": "string"
            },
            {
              "internalType": "string",
              "name": "end_paretnthesis",
              "type": "string"
            },
            {
              "internalType": "bool",
              "name": "status",
              "type": "bool"
            },
            {
              "internalType": "uint256",
              "name": "total_var",
              "type": "uint256"
            }
          ],
          "stateMutability": "view",
          "type": "function"
        },
        {
          "inputs": [],
          "name": "uni_eqn_count",
          "outputs": [
            {
              "internalType": "uint256",
              "name": "",
              "type": "uint256"
            }
          ],
          "stateMutability": "view",
          "type": "function"
        },
        {
          "inputs": [],
          "name": "uni_st_count",
          "outputs": [
            {
              "internalType": "uint256",
              "name": "",
              "type": "uint256"
            }
          ],
          "stateMutability": "view",
          "type": "function"
        },
        {
          "inputs": [],
          "name": "var_name",
          "outputs": [
            {
              "internalType": "bytes32",
              "name": "",
              "type": "bytes32"
            }
          ],
          "stateMutability": "view",
          "type": "function"
        },
        {
          "inputs": [
            {
              "internalType": "bytes32",
              "name": "",
              "type": "bytes32"
            }
          ],
          "name": "var_ref",
          "outputs": [
            {
              "internalType": "uint256",
              "name": "",
              "type": "uint256"
            }
          ],
          "stateMutability": "view",
          "type": "function"
        }
      ],
      "evm": {
        "bytecode": {
          "linkReferences": {},
          "object": "60806040526000600b556000600c556000600d556000600e553480156200002557600080fd5b5060016000604051620000389062000450565b908152602001604051809103902081905550600260006040516200005c9062000495565b90815260200160405180910390208190555060036000604051620000809062000422565b90815260200160405180910390208190555060046000604051620000a4906200040b565b90815260200160405180910390208190555060056000604051620000c89062000439565b90815260200160405180910390208190555060066000604051620000ec906200047e565b9081526020016040518091039020819055506001806040516200010f90620003f4565b90815260200160405180910390208190555060026001604051620001339062000467565b908152602001604051809103902081905550600360016040516200015790620003af565b908152602001604051809103902081905550600460016040516200017b90620004ac565b908152602001604051809103902081905550600560016040516200019f90620003c6565b90815260200160405180910390208190555060066001604051620001c390620003dd565b908152602001604051809103902081905550620006ba565b6000620001ea600183620004c3565b9150620001f782620004ce565b600182019050919050565b600062000211600283620004c3565b91506200021e82620004f7565b600282019050919050565b600062000238600283620004c3565b9150620002458262000520565b600282019050919050565b60006200025f600183620004c3565b91506200026c8262000549565b600182019050919050565b600062000286600383620004c3565b9150620002938262000572565b600382019050919050565b6000620002ad600683620004c3565b9150620002ba826200059b565b600682019050919050565b6000620002d4600583620004c3565b9150620002e182620005c4565b600582019050919050565b6000620002fb600483620004c3565b91506200030882620005ed565b600482019050919050565b600062000322600183620004c3565b91506200032f8262000616565b600182019050919050565b600062000349600683620004c3565b915062000356826200063f565b600682019050919050565b600062000370600583620004c3565b91506200037d8262000668565b600582019050919050565b600062000397600183620004c3565b9150620003a48262000691565b600182019050919050565b6000620003bc82620001db565b9150819050919050565b6000620003d38262000202565b9150819050919050565b6000620003ea8262000229565b9150819050919050565b6000620004018262000250565b9150819050919050565b6000620004188262000277565b9150819050919050565b60006200042f826200029e565b9150819050919050565b60006200044682620002c5565b9150819050919050565b60006200045d82620002ec565b9150819050919050565b6000620004748262000313565b9150819050919050565b60006200048b826200033a565b9150819050919050565b6000620004a28262000361565b9150819050919050565b6000620004b98262000388565b9150819050919050565b600081905092915050565b7f2a00000000000000000000000000000000000000000000000000000000000000600082015250565b7f2b2b000000000000000000000000000000000000000000000000000000000000600082015250565b7f2d2d000000000000000000000000000000000000000000000000000000000000600082015250565b7f2b00000000000000000000000000000000000000000000000000000000000000600082015250565b7f696e740000000000000000000000000000000000000000000000000000000000600082015250565b7f7072696e74660000000000000000000000000000000000000000000000000000600082015250565b7f666c6f6174000000000000000000000000000000000000000000000000000000600082015250565b7f6d61696e00000000000000000000000000000000000000000000000000000000600082015250565b7f2d00000000000000000000000000000000000000000000000000000000000000600082015250565b7f646f75626c650000000000000000000000000000000000000000000000000000600082015250565b7f7363616e66000000000000000000000000000000000000000000000000000000600082015250565b7f3d00000000000000000000000000000000000000000000000000000000000000600082015250565b612ac180620006ca6000396000f3fe608060405234801561001057600080fd5b50600436106100f55760003560e01c80636390bb1311610097578063a908c8e011610066578063a908c8e0146102b4578063c3da42b8146102d2578063c4e2908d146102f0578063ffae15ba1461030e576100f5565b80636390bb131461021457806366c92d0b146102445780638897b75a146102625780638a054ac214610296576100f5565b80634556ae7b116100d35780634556ae7b146101665780634d787d4514610196578063535e70f3146101c657806362830cdc146101e4576100f5565b806308188f00146100fa57806329104c281461012a578063397e578914610148575b600080fd5b610114600480360381019061010f9190612294565b61032c565b604051610121919061252c565b60405180910390f35b610132610351565b60405161013f919061252c565b60405180910390f35b610150610357565b60405161015d919061252c565b60405180910390f35b610180600480360381019061017b91906121d6565b61035d565b60405161018d919061252c565b60405180910390f35b6101b060048036038101906101ab91906121ff565b610375565b6040516101bd919061252c565b60405180910390f35b6101ce61043b565b6040516101db919061252c565b60405180910390f35b6101fe60048036038101906101f99190612294565b610441565b60405161020b919061252c565b60405180910390f35b61022e6004803603810190610229919061226b565b610466565b60405161023b91906124f6565b60405180910390f35b61024c610486565b604051610259919061252c565b60405180910390f35b61027c6004803603810190610277919061226b565b61048c565b60405161028d959493929190612547565b60405180910390f35b61029e6105df565b6040516102ab9190612511565b60405180910390f35b6102bc6105e5565b6040516102c99190612511565b60405180910390f35b6102da6105eb565b6040516102e79190612511565b60405180910390f35b6102f86105f1565b604051610305919061252c565b60405180910390f35b6103166105f7565b60405161032391906124f6565b60405180910390f35b6006602052816000526040600020602052806000526040600020600091509150505481565b600d5481565b600c5481565b60026020528060005260406000206000915090505481565b60008061038183610610565b600b54600d81905550600c54600e8190555061039c84610610565b6103a4610622565b6103ac610791565b6103b69190612625565b90506064816103c591906126ac565b9050600e54600c546103d79190612706565b600d54600b546103e79190612706565b60026103f391906126ac565b6103fd9190612625565b81610408919061267b565b90506000600d819055506000600b819055506000600e819055506000600c81905550806008819055508091505092915050565b600e5481565b6005602052816000526040600020602052806000526040600020600091509150505481565b60046020528060005260406000206000915054906101000a900460ff1681565b600b5481565b60036020528060005260406000206000915090508060000154908060010180546104b59061279c565b80601f01602080910402602001604051908101604052809291908181526020018280546104e19061279c565b801561052e5780601f106105035761010080835404028352916020019161052e565b820191906000526020600020905b81548152906001019060200180831161051157829003601f168201915b5050505050908060020180546105439061279c565b80601f016020809104026020016040519081016040528092919081815260200182805461056f9061279c565b80156105bc5780601f10610591576101008083540402835291602001916105bc565b820191906000526020600020905b81548152906001019060200180831161059f57829003601f168201915b5050505050908060030160009054906101000a900460ff16908060040154905085565b600a5481565b600f5481565b60095481565b60085481565b60078060000160009054906101000a900460ff16905081565b600081905061061e816108f9565b5050565b6000806000600d5490505b600b548110156107895760005b600d5481101561077557600115156003600083815260200190815260200160002060030160009054906101000a900460ff161515141561067957610762565b6003600082815260200190815260200160002060000154600360008481526020019081526020016000206000015414156107615782806106b8906127ff565b9350506003600082815260200190815260200160002060040154600360008481526020019081526020016000206004015414156106fe5782806106fa906127ff565b9350505b60016003600083815260200190815260200160002060030160006101000a81548160ff02191690831515021790555060016003600084815260200190815260200160002060030160006101000a81548160ff021916908315150217905550610775565b5b808061076d906127ff565b91505061063a565b508080610781906127ff565b91505061062d565b508091505090565b6000806000600e5490505b600c548110156108f15760005b600e548110156108dd57600115156004600083815260200190815260200160002060009054906101000a900460ff16151514156107e5576108ca565b6006600082815260200190815260200160002060006001815260200190815260200160002054600660008481526020019081526020016000206000600181526020019081526020016000205414801561088557506005600082815260200190815260200160002060008081526020019081526020016000205460056000848152602001908152602001600020600080815260200190815260200160002054145b156108c9578280610895906127ff565b93505060016004600083815260200190815260200160002060006101000a81548160ff0219169083151502179055506108dd565b5b80806108d5906127ff565b9150506107a9565b5080806108e9906127ff565b91505061079c565b508091505090565b600081519050610907612070565b60008060006005905060008060005b8781101561206557602060f81b89828151811061095c577f4e487b7100000000000000000000000000000000000000000000000000000000600052603260045260246000fd5b602001015160f81c60f81b7effffffffffffffffffffffffffffffffffffffffffffffffffffffffffffff1916141561099457612052565b7f3b000000000000000000000000000000000000000000000000000000000000008982815181106109ee577f4e487b7100000000000000000000000000000000000000000000000000000000600052603260045260246000fd5b602001015160f81c60f81b7effffffffffffffffffffffffffffffffffffffffffffffffffffffffffffff19161480610aab57507f7b00000000000000000000000000000000000000000000000000000000000000898281518110610a7c577f4e487b7100000000000000000000000000000000000000000000000000000000600052603260045260246000fd5b602001015160f81c60f81b7effffffffffffffffffffffffffffffffffffffffffffffffffffffffffffff1916145b80610b3a57507f7d00000000000000000000000000000000000000000000000000000000000000898281518110610b0b577f4e487b7100000000000000000000000000000000000000000000000000000000600052603260045260246000fd5b602001015160f81c60f81b7effffffffffffffffffffffffffffffffffffffffffffffffffffffffffffff1916145b15610ced576001841415610c3157866080018051809190610b5a906127ff565b815250508660036000600b6000815480929190610b76906127ff565b919050558152602001908152602001600020600082015181600001556020820151816001019080519060200190610bae9291906120a1565b506040820151816002019080519060200190610bcb9291906120a1565b5060608201518160030160006101000a81548160ff02191690831515021790555060808201518160040155905050866000015160026000600f5481526020019081526020016000208190555060008760800181815250506000801b600f81905550610cd4565b6005841415610cd35760026000600f5481526020019081526020016000205460056000600c54815260200190815260200160002060008580610c72906127ff565b96508152602001908152602001600020819055506000801b600f81905550600060046000600c6000815480929190610ca9906127ff565b91905055815260200190815260200160002060006101000a81548160ff0219169083151502179055505b5b6000955060009150600092506005935060009450612052565b606d60f81b898281518110610d2b577f4e487b7100000000000000000000000000000000000000000000000000000000600052603260045260246000fd5b602001015160f81c60f81b7effffffffffffffffffffffffffffffffffffffffffffffffffffffffffffff1916148015610d70575087600382610d6e9190612625565b105b15610f3157606160f81b89600183610d889190612625565b81518110610dbf577f4e487b7100000000000000000000000000000000000000000000000000000000600052603260045260246000fd5b602001015160f81c60f81b7effffffffffffffffffffffffffffffffffffffffffffffffffffffffffffff1916148015610e6d5750606960f81b89600283610e079190612625565b81518110610e3e577f4e487b7100000000000000000000000000000000000000000000000000000000600052603260045260246000fd5b602001015160f81c60f81b7effffffffffffffffffffffffffffffffffffffffffffffffffffffffffffff1916145b8015610eed5750606e60f81b89600383610e879190612625565b81518110610ebe577f4e487b7100000000000000000000000000000000000000000000000000000000600052603260045260246000fd5b602001015160f81c60f81b7effffffffffffffffffffffffffffffffffffffffffffffffffffffffffffff1916145b15610f2c576000604051610f00906124a2565b908152602001604051809103902054876000018181525050600381610f259190612625565b9050600293505b612051565b607360f81b898281518110610f6f577f4e487b7100000000000000000000000000000000000000000000000000000000600052603260045260246000fd5b602001015160f81c60f81b7effffffffffffffffffffffffffffffffffffffffffffffffffffffffffffff1916148015610fb4575087600482610fb29190612625565b105b156111f557606360f81b89600183610fcc9190612625565b81518110611003577f4e487b7100000000000000000000000000000000000000000000000000000000600052603260045260246000fd5b602001015160f81c60f81b7effffffffffffffffffffffffffffffffffffffffffffffffffffffffffffff19161480156110b15750606160f81b8960028361104b9190612625565b81518110611082577f4e487b7100000000000000000000000000000000000000000000000000000000600052603260045260246000fd5b602001015160f81c60f81b7effffffffffffffffffffffffffffffffffffffffffffffffffffffffffffff1916145b80156111315750606e60f81b896003836110cb9190612625565b81518110611102577f4e487b7100000000000000000000000000000000000000000000000000000000600052603260045260246000fd5b602001015160f81c60f81b7effffffffffffffffffffffffffffffffffffffffffffffffffffffffffffff1916145b80156111b15750606660f81b8960048361114b9190612625565b81518110611182577f4e487b7100000000000000000000000000000000000000000000000000000000600052603260045260246000fd5b602001015160f81c60f81b7effffffffffffffffffffffffffffffffffffffffffffffffffffffffffffff1916145b156111f05760006040516111c4906124cc565b9081526020016040518091039020548760000181815250506004816111e99190612625565b9050600393505b612050565b607060f81b898281518110611233577f4e487b7100000000000000000000000000000000000000000000000000000000600052603260045260246000fd5b602001015160f81c60f81b7effffffffffffffffffffffffffffffffffffffffffffffffffffffffffffff19161480156112785750876005826112769190612625565b105b1561153957607260f81b896001836112909190612625565b815181106112c7577f4e487b7100000000000000000000000000000000000000000000000000000000600052603260045260246000fd5b602001015160f81c60f81b7effffffffffffffffffffffffffffffffffffffffffffffffffffffffffffff19161480156113755750606960f81b8960028361130f9190612625565b81518110611346577f4e487b7100000000000000000000000000000000000000000000000000000000600052603260045260246000fd5b602001015160f81c60f81b7effffffffffffffffffffffffffffffffffffffffffffffffffffffffffffff1916145b80156113f55750606e60f81b8960038361138f9190612625565b815181106113c6577f4e487b7100000000000000000000000000000000000000000000000000000000600052603260045260246000fd5b602001015160f81c60f81b7effffffffffffffffffffffffffffffffffffffffffffffffffffffffffffff1916145b80156114755750607460f81b8960048361140f9190612625565b81518110611446577f4e487b7100000000000000000000000000000000000000000000000000000000600052603260045260246000fd5b602001015160f81c60f81b7effffffffffffffffffffffffffffffffffffffffffffffffffffffffffffff1916145b80156114f55750606660f81b8960058361148f9190612625565b815181106114c6577f4e487b7100000000000000000000000000000000000000000000000000000000600052603260045260246000fd5b602001015160f81c60f81b7effffffffffffffffffffffffffffffffffffffffffffffffffffffffffffff1916145b1561153457600060405161150890612478565b90815260200160405180910390205487600001818152505060058161152d9190612625565b9050600493505b61204f565b606960f81b898281518110611577577f4e487b7100000000000000000000000000000000000000000000000000000000600052603260045260246000fd5b602001015160f81c60f81b7effffffffffffffffffffffffffffffffffffffffffffffffffffffffffffff19161480156115bc5750876002826115ba9190612625565b105b1561170157606e60f81b896001836115d49190612625565b8151811061160b577f4e487b7100000000000000000000000000000000000000000000000000000000600052603260045260246000fd5b602001015160f81c60f81b7effffffffffffffffffffffffffffffffffffffffffffffffffffffffffffff19161480156116b95750607460f81b896002836116539190612625565b8151811061168a577f4e487b7100000000000000000000000000000000000000000000000000000000600052603260045260246000fd5b602001015160f81c60f81b7effffffffffffffffffffffffffffffffffffffffffffffffffffffffffffff1916145b156116fc5760006040516116cc90612463565b9081526020016040518091039020548760000181815250506002816116f19190612625565b905060019550600193505b61204e565b606660f81b89828151811061173f577f4e487b7100000000000000000000000000000000000000000000000000000000600052603260045260246000fd5b602001015160f81c60f81b7effffffffffffffffffffffffffffffffffffffffffffffffffffffffffffff19161480156117845750876004826117829190612625565b105b156119c957606c60f81b8960018361179c9190612625565b815181106117d3577f4e487b7100000000000000000000000000000000000000000000000000000000600052603260045260246000fd5b602001015160f81c60f81b7effffffffffffffffffffffffffffffffffffffffffffffffffffffffffffff19161480156118815750606f60f81b8960028361181b9190612625565b81518110611852577f4e487b7100000000000000000000000000000000000000000000000000000000600052603260045260246000fd5b602001015160f81c60f81b7effffffffffffffffffffffffffffffffffffffffffffffffffffffffffffff1916145b80156119015750606160f81b8960038361189b9190612625565b815181106118d2577f4e487b7100000000000000000000000000000000000000000000000000000000600052603260045260246000fd5b602001015160f81c60f81b7effffffffffffffffffffffffffffffffffffffffffffffffffffffffffffff1916145b80156119815750607460f81b8960048361191b9190612625565b81518110611952577f4e487b7100000000000000000000000000000000000000000000000000000000600052603260045260246000fd5b602001015160f81c60f81b7effffffffffffffffffffffffffffffffffffffffffffffffffffffffffffff1916145b156119c45760006040516119949061248d565b9081526020016040518091039020548760000181815250506004816119b99190612625565b905060019550600193505b61204d565b8515611b9b57602c60f81b898281518110611a0d577f4e487b7100000000000000000000000000000000000000000000000000000000600052603260045260246000fd5b602001015160f81c60f81b7effffffffffffffffffffffffffffffffffffffffffffffffffffffffffffff191614611b4857888181518110611a78577f4e487b7100000000000000000000000000000000000000000000000000000000600052603260045260246000fd5b602001015160f81c60f81b7effffffffffffffffffffffffffffffffffffffffffffffffffffffffffffff1916600981905550600885611ab891906126ac565b60ff60f81b8a8381518110611af6577f4e487b7100000000000000000000000000000000000000000000000000000000600052603260045260246000fd5b602001015160f81c60f81b167effffffffffffffffffffffffffffffffffffffffffffffffffffffffffffff1916901c600f600082825417925050819055508480611b40906127ff565b955050611b96565b866000015160026000600f5481526020019081526020016000208190555060009450866080018051809190611b7c906127ff565b815250506000801b600f81905550602c60001b600a819055505b61204c565b600584141561204b57606060f81b898281518110611be2577f4e487b7100000000000000000000000000000000000000000000000000000000600052603260045260246000fd5b602001015160f81c60f81b7effffffffffffffffffffffffffffffffffffffffffffffffffffffffffffff1916118015611c845750607b60f81b898281518110611c55577f4e487b7100000000000000000000000000000000000000000000000000000000600052603260045260246000fd5b602001015160f81c60f81b7effffffffffffffffffffffffffffffffffffffffffffffffffffffffffffff1916105b15611d9257888181518110611cc2577f4e487b7100000000000000000000000000000000000000000000000000000000600052603260045260246000fd5b602001015160f81c60f81b7effffffffffffffffffffffffffffffffffffffffffffffffffffffffffffff1916600981905550600885611d0291906126ac565b60ff60f81b8a8381518110611d40577f4e487b7100000000000000000000000000000000000000000000000000000000600052603260045260246000fd5b602001015160f81c60f81b167effffffffffffffffffffffffffffffffffffffffffffffffffffffffffffff1916901c600f600082825417925050819055508480611d8a906127ff565b955050612046565b60026000600f5481526020019081526020016000205460056000600c54815260200190815260200160002060008580611dca906127ff565b96508152602001908152602001600020819055506000801b600f8190555060009450602b60f81b898281518110611e2a577f4e487b7100000000000000000000000000000000000000000000000000000000600052603260045260246000fd5b602001015160f81c60f81b7effffffffffffffffffffffffffffffffffffffffffffffffffffffffffffff19161415611eb5576001604051611e6b9061244e565b90815260200160405180910390205460066000600c54815260200190815260200160002060008480611e9c906127ff565b9550815260200190815260200160002081905550612045565b602d60f81b898281518110611ef3577f4e487b7100000000000000000000000000000000000000000000000000000000600052603260045260246000fd5b602001015160f81c60f81b7effffffffffffffffffffffffffffffffffffffffffffffffffffffffffffff19161415611f7e576001604051611f34906124b7565b90815260200160405180910390205460066000600c54815260200190815260200160002060008480611f65906127ff565b9550815260200190815260200160002081905550612044565b603d60f81b898281518110611fbc577f4e487b7100000000000000000000000000000000000000000000000000000000600052603260045260246000fd5b602001015160f81c60f81b7effffffffffffffffffffffffffffffffffffffffffffffffffffffffffffff19161415612043576001604051611ffd906124e1565b90815260200160405180910390205460066000600c5481526020019081526020016000206000848061202e906127ff565b95508152602001908152602001600020819055505b5b5b5b600593505b5b5b5b5b5b5b5b808061205d906127ff565b915050610916565b505050505050505050565b6040518060a00160405280600081526020016060815260200160608152602001600015158152602001600081525090565b8280546120ad9061279c565b90600052602060002090601f0160209004810192826120cf5760008555612116565b82601f106120e857805160ff1916838001178555612116565b82800160010185558215612116579182015b828111156121155782518255916020019190600101906120fa565b5b5090506121239190612127565b5090565b5b80821115612140576000816000905550600101612128565b5090565b6000612157612152846125cd565b6125a8565b90508281526020810184848401111561216f57600080fd5b61217a84828561275a565b509392505050565b60008135905061219181612a5d565b92915050565b600082601f8301126121a857600080fd5b81356121b8848260208601612144565b91505092915050565b6000813590506121d081612a74565b92915050565b6000602082840312156121e857600080fd5b60006121f684828501612182565b91505092915050565b6000806040838503121561221257600080fd5b600083013567ffffffffffffffff81111561222c57600080fd5b61223885828601612197565b925050602083013567ffffffffffffffff81111561225557600080fd5b61226185828601612197565b9150509250929050565b60006020828403121561227d57600080fd5b600061228b848285016121c1565b91505092915050565b600080604083850312156122a757600080fd5b60006122b5858286016121c1565b92505060206122c6858286016121c1565b9150509250929050565b6122d98161273a565b82525050565b6122e881612746565b82525050565b60006122f9826125fe565b6123038185612609565b9350612313818560208601612769565b61231c81612904565b840191505092915050565b600061233460018361261a565b915061233f82612915565b600182019050919050565b600061235760038361261a565b91506123628261293e565b600382019050919050565b600061237a60068361261a565b915061238582612967565b600682019050919050565b600061239d60058361261a565b91506123a882612990565b600582019050919050565b60006123c060048361261a565b91506123cb826129b9565b600482019050919050565b60006123e360018361261a565b91506123ee826129e2565b600182019050919050565b600061240660058361261a565b915061241182612a0b565b600582019050919050565b600061242960018361261a565b915061243482612a34565b600182019050919050565b61244881612750565b82525050565b600061245982612327565b9150819050919050565b600061246e8261234a565b9150819050919050565b60006124838261236d565b9150819050919050565b600061249882612390565b9150819050919050565b60006124ad826123b3565b9150819050919050565b60006124c2826123d6565b9150819050919050565b60006124d7826123f9565b9150819050919050565b60006124ec8261241c565b9150819050919050565b600060208201905061250b60008301846122d0565b92915050565b600060208201905061252660008301846122df565b92915050565b6000602082019050612541600083018461243f565b92915050565b600060a08201905061255c600083018861243f565b818103602083015261256e81876122ee565b9050818103604083015261258281866122ee565b905061259160608301856122d0565b61259e608083018461243f565b9695505050505050565b60006125b26125c3565b90506125be82826127ce565b919050565b6000604051905090565b600067ffffffffffffffff8211156125e8576125e76128d5565b5b6125f182612904565b9050602081019050919050565b600081519050919050565b600082825260208201905092915050565b600081905092915050565b600061263082612750565b915061263b83612750565b9250827fffffffffffffffffffffffffffffffffffffffffffffffffffffffffffffffff038211156126705761266f612848565b5b828201905092915050565b600061268682612750565b915061269183612750565b9250826126a1576126a0612877565b5b828204905092915050565b60006126b782612750565b91506126c283612750565b9250817fffffffffffffffffffffffffffffffffffffffffffffffffffffffffffffffff04831182151516156126fb576126fa612848565b5b828202905092915050565b600061271182612750565b915061271c83612750565b92508282101561272f5761272e612848565b5b828203905092915050565b60008115159050919050565b6000819050919050565b6000819050919050565b82818337600083830152505050565b60005b8381101561278757808201518184015260208101905061276c565b83811115612796576000848401525b50505050565b600060028204905060018216806127b457607f821691505b602082108114156127c8576127c76128a6565b5b50919050565b6127d782612904565b810181811067ffffffffffffffff821117156127f6576127f56128d5565b5b80604052505050565b600061280a82612750565b91507fffffffffffffffffffffffffffffffffffffffffffffffffffffffffffffffff82141561283d5761283c612848565b5b600182019050919050565b7f4e487b7100000000000000000000000000000000000000000000000000000000600052601160045260246000fd5b7f4e487b7100000000000000000000000000000000000000000000000000000000600052601260045260246000fd5b7f4e487b7100000000000000000000000000000000000000000000000000000000600052602260045260246000fd5b7f4e487b7100000000000000000000000000000000000000000000000000000000600052604160045260246000fd5b6000601f19601f8301169050919050565b7f2b00000000000000000000000000000000000000000000000000000000000000600082015250565b7f696e740000000000000000000000000000000000000000000000000000000000600082015250565b7f7072696e74660000000000000000000000000000000000000000000000000000600082015250565b7f666c6f6174000000000000000000000000000000000000000000000000000000600082015250565b7f6d61696e00000000000000000000000000000000000000000000000000000000600082015250565b7f2d00000000000000000000000000000000000000000000000000000000000000600082015250565b7f7363616e66000000000000000000000000000000000000000000000000000000600082015250565b7f3d00000000000000000000000000000000000000000000000000000000000000600082015250565b612a6681612746565b8114612a7157600080fd5b50565b612a7d81612750565b8114612a8857600080fd5b5056fea2646970667358221220d20958b1b01a9fc99d5ad0fd41eda1dd6d36b9636c328c3c904da984f44346a364736f6c63430008030033",
          "opcodes": "PUSH1 0x80 PUSH1 0x40 MSTORE PUSH1 0x0 PUSH1 0xB SSTORE PUSH1 0x0 PUSH1 0xC SSTORE PUSH1 0x0 PUSH1 0xD SSTORE PUSH1 0x0 PUSH1 0xE SSTORE CALLVALUE DUP1 ISZERO PUSH3 0x25 JUMPI PUSH1 0x0 DUP1 REVERT JUMPDEST POP PUSH1 0x1 PUSH1 0x0 PUSH1 0x40 MLOAD PUSH3 0x38 SWAP1 PUSH3 0x450 JUMP JUMPDEST SWAP1 DUP2 MSTORE PUSH1 0x20 ADD PUSH1 0x40 MLOAD DUP1 SWAP2 SUB SWAP1 KECCAK256 DUP2 SWAP1 SSTORE POP PUSH1 0x2 PUSH1 0x0 PUSH1 0x40 MLOAD PUSH3 0x5C SWAP1 PUSH3 0x495 JUMP JUMPDEST SWAP1 DUP2 MSTORE PUSH1 0x20 ADD PUSH1 0x40 MLOAD DUP1 SWAP2 SUB SWAP1 KECCAK256 DUP2 SWAP1 SSTORE POP PUSH1 0x3 PUSH1 0x0 PUSH1 0x40 MLOAD PUSH3 0x80 SWAP1 PUSH3 0x422 JUMP JUMPDEST SWAP1 DUP2 MSTORE PUSH1 0x20 ADD PUSH1 0x40 MLOAD DUP1 SWAP2 SUB SWAP1 KECCAK256 DUP2 SWAP1 SSTORE POP PUSH1 0x4 PUSH1 0x0 PUSH1 0x40 MLOAD PUSH3 0xA4 SWAP1 PUSH3 0x40B JUMP JUMPDEST SWAP1 DUP2 MSTORE PUSH1 0x20 ADD PUSH1 0x40 MLOAD DUP1 SWAP2 SUB SWAP1 KECCAK256 DUP2 SWAP1 SSTORE POP PUSH1 0x5 PUSH1 0x0 PUSH1 0x40 MLOAD PUSH3 0xC8 SWAP1 PUSH3 0x439 JUMP JUMPDEST SWAP1 DUP2 MSTORE PUSH1 0x20 ADD PUSH1 0x40 MLOAD DUP1 SWAP2 SUB SWAP1 KECCAK256 DUP2 SWAP1 SSTORE POP PUSH1 0x6 PUSH1 0x0 PUSH1 0x40 MLOAD PUSH3 0xEC SWAP1 PUSH3 0x47E JUMP JUMPDEST SWAP1 DUP2 MSTORE PUSH1 0x20 ADD PUSH1 0x40 MLOAD DUP1 SWAP2 SUB SWAP1 KECCAK256 DUP2 SWAP1 SSTORE POP PUSH1 0x1 DUP1 PUSH1 0x40 MLOAD PUSH3 0x10F SWAP1 PUSH3 0x3F4 JUMP JUMPDEST SWAP1 DUP2 MSTORE PUSH1 0x20 ADD PUSH1 0x40 MLOAD DUP1 SWAP2 SUB SWAP1 KECCAK256 DUP2 SWAP1 SSTORE POP PUSH1 0x2 PUSH1 0x1 PUSH1 0x40 MLOAD PUSH3 0x133 SWAP1 PUSH3 0x467 JUMP JUMPDEST SWAP1 DUP2 MSTORE PUSH1 0x20 ADD PUSH1 0x40 MLOAD DUP1 SWAP2 SUB SWAP1 KECCAK256 DUP2 SWAP1 SSTORE POP PUSH1 0x3 PUSH1 0x1 PUSH1 0x40 MLOAD PUSH3 0x157 SWAP1 PUSH3 0x3AF JUMP JUMPDEST SWAP1 DUP2 MSTORE PUSH1 0x20 ADD PUSH1 0x40 MLOAD DUP1 SWAP2 SUB SWAP1 KECCAK256 DUP2 SWAP1 SSTORE POP PUSH1 0x4 PUSH1 0x1 PUSH1 0x40 MLOAD PUSH3 0x17B SWAP1 PUSH3 0x4AC JUMP JUMPDEST SWAP1 DUP2 MSTORE PUSH1 0x20 ADD PUSH1 0x40 MLOAD DUP1 SWAP2 SUB SWAP1 KECCAK256 DUP2 SWAP1 SSTORE POP PUSH1 0x5 PUSH1 0x1 PUSH1 0x40 MLOAD PUSH3 0x19F SWAP1 PUSH3 0x3C6 JUMP JUMPDEST SWAP1 DUP2 MSTORE PUSH1 0x20 ADD PUSH1 0x40 MLOAD DUP1 SWAP2 SUB SWAP1 KECCAK256 DUP2 SWAP1 SSTORE POP PUSH1 0x6 PUSH1 0x1 PUSH1 0x40 MLOAD PUSH3 0x1C3 SWAP1 PUSH3 0x3DD JUMP JUMPDEST SWAP1 DUP2 MSTORE PUSH1 0x20 ADD PUSH1 0x40 MLOAD DUP1 SWAP2 SUB SWAP1 KECCAK256 DUP2 SWAP1 SSTORE POP PUSH3 0x6BA JUMP JUMPDEST PUSH1 0x0 PUSH3 0x1EA PUSH1 0x1 DUP4 PUSH3 0x4C3 JUMP JUMPDEST SWAP2 POP PUSH3 0x1F7 DUP3 PUSH3 0x4CE JUMP JUMPDEST PUSH1 0x1 DUP3 ADD SWAP1 POP SWAP2 SWAP1 POP JUMP JUMPDEST PUSH1 0x0 PUSH3 0x211 PUSH1 0x2 DUP4 PUSH3 0x4C3 JUMP JUMPDEST SWAP2 POP PUSH3 0x21E DUP3 PUSH3 0x4F7 JUMP JUMPDEST PUSH1 0x2 DUP3 ADD SWAP1 POP SWAP2 SWAP1 POP JUMP JUMPDEST PUSH1 0x0 PUSH3 0x238 PUSH1 0x2 DUP4 PUSH3 0x4C3 JUMP JUMPDEST SWAP2 POP PUSH3 0x245 DUP3 PUSH3 0x520 JUMP JUMPDEST PUSH1 0x2 DUP3 ADD SWAP1 POP SWAP2 SWAP1 POP JUMP JUMPDEST PUSH1 0x0 PUSH3 0x25F PUSH1 0x1 DUP4 PUSH3 0x4C3 JUMP JUMPDEST SWAP2 POP PUSH3 0x26C DUP3 PUSH3 0x549 JUMP JUMPDEST PUSH1 0x1 DUP3 ADD SWAP1 POP SWAP2 SWAP1 POP JUMP JUMPDEST PUSH1 0x0 PUSH3 0x286 PUSH1 0x3 DUP4 PUSH3 0x4C3 JUMP JUMPDEST SWAP2 POP PUSH3 0x293 DUP3 PUSH3 0x572 JUMP JUMPDEST PUSH1 0x3 DUP3 ADD SWAP1 POP SWAP2 SWAP1 POP JUMP JUMPDEST PUSH1 0x0 PUSH3 0x2AD PUSH1 0x6 DUP4 PUSH3 0x4C3 JUMP JUMPDEST SWAP2 POP PUSH3 0x2BA DUP3 PUSH3 0x59B JUMP JUMPDEST PUSH1 0x6 DUP3 ADD SWAP1 POP SWAP2 SWAP1 POP JUMP JUMPDEST PUSH1 0x0 PUSH3 0x2D4 PUSH1 0x5 DUP4 PUSH3 0x4C3 JUMP JUMPDEST SWAP2 POP PUSH3 0x2E1 DUP3 PUSH3 0x5C4 JUMP JUMPDEST PUSH1 0x5 DUP3 ADD SWAP1 POP SWAP2 SWAP1 POP JUMP JUMPDEST PUSH1 0x0 PUSH3 0x2FB PUSH1 0x4 DUP4 PUSH3 0x4C3 JUMP JUMPDEST SWAP2 POP PUSH3 0x308 DUP3 PUSH3 0x5ED JUMP JUMPDEST PUSH1 0x4 DUP3 ADD SWAP1 POP SWAP2 SWAP1 POP JUMP JUMPDEST PUSH1 0x0 PUSH3 0x322 PUSH1 0x1 DUP4 PUSH3 0x4C3 JUMP JUMPDEST SWAP2 POP PUSH3 0x32F DUP3 PUSH3 0x616 JUMP JUMPDEST PUSH1 0x1 DUP3 ADD SWAP1 POP SWAP2 SWAP1 POP JUMP JUMPDEST PUSH1 0x0 PUSH3 0x349 PUSH1 0x6 DUP4 PUSH3 0x4C3 JUMP JUMPDEST SWAP2 POP PUSH3 0x356 DUP3 PUSH3 0x63F JUMP JUMPDEST PUSH1 0x6 DUP3 ADD SWAP1 POP SWAP2 SWAP1 POP JUMP JUMPDEST PUSH1 0x0 PUSH3 0x370 PUSH1 0x5 DUP4 PUSH3 0x4C3 JUMP JUMPDEST SWAP2 POP PUSH3 0x37D DUP3 PUSH3 0x668 JUMP JUMPDEST PUSH1 0x5 DUP3 ADD SWAP1 POP SWAP2 SWAP1 POP JUMP JUMPDEST PUSH1 0x0 PUSH3 0x397 PUSH1 0x1 DUP4 PUSH3 0x4C3 JUMP JUMPDEST SWAP2 POP PUSH3 0x3A4 DUP3 PUSH3 0x691 JUMP JUMPDEST PUSH1 0x1 DUP3 ADD SWAP1 POP SWAP2 SWAP1 POP JUMP JUMPDEST PUSH1 0x0 PUSH3 0x3BC DUP3 PUSH3 0x1DB JUMP JUMPDEST SWAP2 POP DUP2 SWAP1 POP SWAP2 SWAP1 POP JUMP JUMPDEST PUSH1 0x0 PUSH3 0x3D3 DUP3 PUSH3 0x202 JUMP JUMPDEST SWAP2 POP DUP2 SWAP1 POP SWAP2 SWAP1 POP JUMP JUMPDEST PUSH1 0x0 PUSH3 0x3EA DUP3 PUSH3 0x229 JUMP JUMPDEST SWAP2 POP DUP2 SWAP1 POP SWAP2 SWAP1 POP JUMP JUMPDEST PUSH1 0x0 PUSH3 0x401 DUP3 PUSH3 0x250 JUMP JUMPDEST SWAP2 POP DUP2 SWAP1 POP SWAP2 SWAP1 POP JUMP JUMPDEST PUSH1 0x0 PUSH3 0x418 DUP3 PUSH3 0x277 JUMP JUMPDEST SWAP2 POP DUP2 SWAP1 POP SWAP2 SWAP1 POP JUMP JUMPDEST PUSH1 0x0 PUSH3 0x42F DUP3 PUSH3 0x29E JUMP JUMPDEST SWAP2 POP DUP2 SWAP1 POP SWAP2 SWAP1 POP JUMP JUMPDEST PUSH1 0x0 PUSH3 0x446 DUP3 PUSH3 0x2C5 JUMP JUMPDEST SWAP2 POP DUP2 SWAP1 POP SWAP2 SWAP1 POP JUMP JUMPDEST PUSH1 0x0 PUSH3 0x45D DUP3 PUSH3 0x2EC JUMP JUMPDEST SWAP2 POP DUP2 SWAP1 POP SWAP2 SWAP1 POP JUMP JUMPDEST PUSH1 0x0 PUSH3 0x474 DUP3 PUSH3 0x313 JUMP JUMPDEST SWAP2 POP DUP2 SWAP1 POP SWAP2 SWAP1 POP JUMP JUMPDEST PUSH1 0x0 PUSH3 0x48B DUP3 PUSH3 0x33A JUMP JUMPDEST SWAP2 POP DUP2 SWAP1 POP SWAP2 SWAP1 POP JUMP JUMPDEST PUSH1 0x0 PUSH3 0x4A2 DUP3 PUSH3 0x361 JUMP JUMPDEST SWAP2 POP DUP2 SWAP1 POP SWAP2 SWAP1 POP JUMP JUMPDEST PUSH1 0x0 PUSH3 0x4B9 DUP3 PUSH3 0x388 JUMP JUMPDEST SWAP2 POP DUP2 SWAP1 POP SWAP2 SWAP1 POP JUMP JUMPDEST PUSH1 0x0 DUP2 SWAP1 POP SWAP3 SWAP2 POP POP JUMP JUMPDEST PUSH32 0x2A00000000000000000000000000000000000000000000000000000000000000 PUSH1 0x0 DUP3 ADD MSTORE POP JUMP JUMPDEST PUSH32 0x2B2B000000000000000000000000000000000000000000000000000000000000 PUSH1 0x0 DUP3 ADD MSTORE POP JUMP JUMPDEST PUSH32 0x2D2D000000000000000000000000000000000000000000000000000000000000 PUSH1 0x0 DUP3 ADD MSTORE POP JUMP JUMPDEST PUSH32 0x2B00000000000000000000000000000000000000000000000000000000000000 PUSH1 0x0 DUP3 ADD MSTORE POP JUMP JUMPDEST PUSH32 0x696E740000000000000000000000000000000000000000000000000000000000 PUSH1 0x0 DUP3 ADD MSTORE POP JUMP JUMPDEST PUSH32 0x7072696E74660000000000000000000000000000000000000000000000000000 PUSH1 0x0 DUP3 ADD MSTORE POP JUMP JUMPDEST PUSH32 0x666C6F6174000000000000000000000000000000000000000000000000000000 PUSH1 0x0 DUP3 ADD MSTORE POP JUMP JUMPDEST PUSH32 0x6D61696E00000000000000000000000000000000000000000000000000000000 PUSH1 0x0 DUP3 ADD MSTORE POP JUMP JUMPDEST PUSH32 0x2D00000000000000000000000000000000000000000000000000000000000000 PUSH1 0x0 DUP3 ADD MSTORE POP JUMP JUMPDEST PUSH32 0x646F75626C650000000000000000000000000000000000000000000000000000 PUSH1 0x0 DUP3 ADD MSTORE POP JUMP JUMPDEST PUSH32 0x7363616E66000000000000000000000000000000000000000000000000000000 PUSH1 0x0 DUP3 ADD MSTORE POP JUMP JUMPDEST PUSH32 0x3D00000000000000000000000000000000000000000000000000000000000000 PUSH1 0x0 DUP3 ADD MSTORE POP JUMP JUMPDEST PUSH2 0x2AC1 DUP1 PUSH3 0x6CA PUSH1 0x0 CODECOPY PUSH1 0x0 RETURN INVALID PUSH1 0x80 PUSH1 0x40 MSTORE CALLVALUE DUP1 ISZERO PUSH2 0x10 JUMPI PUSH1 0x0 DUP1 REVERT JUMPDEST POP PUSH1 0x4 CALLDATASIZE LT PUSH2 0xF5 JUMPI PUSH1 0x0 CALLDATALOAD PUSH1 0xE0 SHR DUP1 PUSH4 0x6390BB13 GT PUSH2 0x97 JUMPI DUP1 PUSH4 0xA908C8E0 GT PUSH2 0x66 JUMPI DUP1 PUSH4 0xA908C8E0 EQ PUSH2 0x2B4 JUMPI DUP1 PUSH4 0xC3DA42B8 EQ PUSH2 0x2D2 JUMPI DUP1 PUSH4 0xC4E2908D EQ PUSH2 0x2F0 JUMPI DUP1 PUSH4 0xFFAE15BA EQ PUSH2 0x30E JUMPI PUSH2 0xF5 JUMP JUMPDEST DUP1 PUSH4 0x6390BB13 EQ PUSH2 0x214 JUMPI DUP1 PUSH4 0x66C92D0B EQ PUSH2 0x244 JUMPI DUP1 PUSH4 0x8897B75A EQ PUSH2 0x262 JUMPI DUP1 PUSH4 0x8A054AC2 EQ PUSH2 0x296 JUMPI PUSH2 0xF5 JUMP JUMPDEST DUP1 PUSH4 0x4556AE7B GT PUSH2 0xD3 JUMPI DUP1 PUSH4 0x4556AE7B EQ PUSH2 0x166 JUMPI DUP1 PUSH4 0x4D787D45 EQ PUSH2 0x196 JUMPI DUP1 PUSH4 0x535E70F3 EQ PUSH2 0x1C6 JUMPI DUP1 PUSH4 0x62830CDC EQ PUSH2 0x1E4 JUMPI PUSH2 0xF5 JUMP JUMPDEST DUP1 PUSH4 0x8188F00 EQ PUSH2 0xFA JUMPI DUP1 PUSH4 0x29104C28 EQ PUSH2 0x12A JUMPI DUP1 PUSH4 0x397E5789 EQ PUSH2 0x148 JUMPI JUMPDEST PUSH1 0x0 DUP1 REVERT JUMPDEST PUSH2 0x114 PUSH1 0x4 DUP1 CALLDATASIZE SUB DUP2 ADD SWAP1 PUSH2 0x10F SWAP2 SWAP1 PUSH2 0x2294 JUMP JUMPDEST PUSH2 0x32C JUMP JUMPDEST PUSH1 0x40 MLOAD PUSH2 0x121 SWAP2 SWAP1 PUSH2 0x252C JUMP JUMPDEST PUSH1 0x40 MLOAD DUP1 SWAP2 SUB SWAP1 RETURN JUMPDEST PUSH2 0x132 PUSH2 0x351 JUMP JUMPDEST PUSH1 0x40 MLOAD PUSH2 0x13F SWAP2 SWAP1 PUSH2 0x252C JUMP JUMPDEST PUSH1 0x40 MLOAD DUP1 SWAP2 SUB SWAP1 RETURN JUMPDEST PUSH2 0x150 PUSH2 0x357 JUMP JUMPDEST PUSH1 0x40 MLOAD PUSH2 0x15D SWAP2 SWAP1 PUSH2 0x252C JUMP JUMPDEST PUSH1 0x40 MLOAD DUP1 SWAP2 SUB SWAP1 RETURN JUMPDEST PUSH2 0x180 PUSH1 0x4 DUP1 CALLDATASIZE SUB DUP2 ADD SWAP1 PUSH2 0x17B SWAP2 SWAP1 PUSH2 0x21D6 JUMP JUMPDEST PUSH2 0x35D JUMP JUMPDEST PUSH1 0x40 MLOAD PUSH2 0x18D SWAP2 SWAP1 PUSH2 0x252C JUMP JUMPDEST PUSH1 0x40 MLOAD DUP1 SWAP2 SUB SWAP1 RETURN JUMPDEST PUSH2 0x1B0 PUSH1 0x4 DUP1 CALLDATASIZE SUB DUP2 ADD SWAP1 PUSH2 0x1AB SWAP2 SWAP1 PUSH2 0x21FF JUMP JUMPDEST PUSH2 0x375 JUMP JUMPDEST PUSH1 0x40 MLOAD PUSH2 0x1BD SWAP2 SWAP1 PUSH2 0x252C JUMP JUMPDEST PUSH1 0x40 MLOAD DUP1 SWAP2 SUB SWAP1 RETURN JUMPDEST PUSH2 0x1CE PUSH2 0x43B JUMP JUMPDEST PUSH1 0x40 MLOAD PUSH2 0x1DB SWAP2 SWAP1 PUSH2 0x252C JUMP JUMPDEST PUSH1 0x40 MLOAD DUP1 SWAP2 SUB SWAP1 RETURN JUMPDEST PUSH2 0x1FE PUSH1 0x4 DUP1 CALLDATASIZE SUB DUP2 ADD SWAP1 PUSH2 0x1F9 SWAP2 SWAP1 PUSH2 0x2294 JUMP JUMPDEST PUSH2 0x441 JUMP JUMPDEST PUSH1 0x40 MLOAD PUSH2 0x20B SWAP2 SWAP1 PUSH2 0x252C JUMP JUMPDEST PUSH1 0x40 MLOAD DUP1 SWAP2 SUB SWAP1 RETURN JUMPDEST PUSH2 0x22E PUSH1 0x4 DUP1 CALLDATASIZE SUB DUP2 ADD SWAP1 PUSH2 0x229 SWAP2 SWAP1 PUSH2 0x226B JUMP JUMPDEST PUSH2 0x466 JUMP JUMPDEST PUSH1 0x40 MLOAD PUSH2 0x23B SWAP2 SWAP1 PUSH2 0x24F6 JUMP JUMPDEST PUSH1 0x40 MLOAD DUP1 SWAP2 SUB SWAP1 RETURN JUMPDEST PUSH2 0x24C PUSH2 0x486 JUMP JUMPDEST PUSH1 0x40 MLOAD PUSH2 0x259 SWAP2 SWAP1 PUSH2 0x252C JUMP JUMPDEST PUSH1 0x40 MLOAD DUP1 SWAP2 SUB SWAP1 RETURN JUMPDEST PUSH2 0x27C PUSH1 0x4 DUP1 CALLDATASIZE SUB DUP2 ADD SWAP1 PUSH2 0x277 SWAP2 SWAP1 PUSH2 0x226B JUMP JUMPDEST PUSH2 0x48C JUMP JUMPDEST PUSH1 0x40 MLOAD PUSH2 0x28D SWAP6 SWAP5 SWAP4 SWAP3 SWAP2 SWAP1 PUSH2 0x2547 JUMP JUMPDEST PUSH1 0x40 MLOAD DUP1 SWAP2 SUB SWAP1 RETURN JUMPDEST PUSH2 0x29E PUSH2 0x5DF JUMP JUMPDEST PUSH1 0x40 MLOAD PUSH2 0x2AB SWAP2 SWAP1 PUSH2 0x2511 JUMP JUMPDEST PUSH1 0x40 MLOAD DUP1 SWAP2 SUB SWAP1 RETURN JUMPDEST PUSH2 0x2BC PUSH2 0x5E5 JUMP JUMPDEST PUSH1 0x40 MLOAD PUSH2 0x2C9 SWAP2 SWAP1 PUSH2 0x2511 JUMP JUMPDEST PUSH1 0x40 MLOAD DUP1 SWAP2 SUB SWAP1 RETURN JUMPDEST PUSH2 0x2DA PUSH2 0x5EB JUMP JUMPDEST PUSH1 0x40 MLOAD PUSH2 0x2E7 SWAP2 SWAP1 PUSH2 0x2511 JUMP JUMPDEST PUSH1 0x40 MLOAD DUP1 SWAP2 SUB SWAP1 RETURN JUMPDEST PUSH2 0x2F8 PUSH2 0x5F1 JUMP JUMPDEST PUSH1 0x40 MLOAD PUSH2 0x305 SWAP2 SWAP1 PUSH2 0x252C JUMP JUMPDEST PUSH1 0x40 MLOAD DUP1 SWAP2 SUB SWAP1 RETURN JUMPDEST PUSH2 0x316 PUSH2 0x5F7 JUMP JUMPDEST PUSH1 0x40 MLOAD PUSH2 0x323 SWAP2 SWAP1 PUSH2 0x24F6 JUMP JUMPDEST PUSH1 0x40 MLOAD DUP1 SWAP2 SUB SWAP1 RETURN JUMPDEST PUSH1 0x6 PUSH1 0x20 MSTORE DUP2 PUSH1 0x0 MSTORE PUSH1 0x40 PUSH1 0x0 KECCAK256 PUSH1 0x20 MSTORE DUP1 PUSH1 0x0 MSTORE PUSH1 0x40 PUSH1 0x0 KECCAK256 PUSH1 0x0 SWAP2 POP SWAP2 POP POP SLOAD DUP2 JUMP JUMPDEST PUSH1 0xD SLOAD DUP2 JUMP JUMPDEST PUSH1 0xC SLOAD DUP2 JUMP JUMPDEST PUSH1 0x2 PUSH1 0x20 MSTORE DUP1 PUSH1 0x0 MSTORE PUSH1 0x40 PUSH1 0x0 KECCAK256 PUSH1 0x0 SWAP2 POP SWAP1 POP SLOAD DUP2 JUMP JUMPDEST PUSH1 0x0 DUP1 PUSH2 0x381 DUP4 PUSH2 0x610 JUMP JUMPDEST PUSH1 0xB SLOAD PUSH1 0xD DUP2 SWAP1 SSTORE POP PUSH1 0xC SLOAD PUSH1 0xE DUP2 SWAP1 SSTORE POP PUSH2 0x39C DUP5 PUSH2 0x610 JUMP JUMPDEST PUSH2 0x3A4 PUSH2 0x622 JUMP JUMPDEST PUSH2 0x3AC PUSH2 0x791 JUMP JUMPDEST PUSH2 0x3B6 SWAP2 SWAP1 PUSH2 0x2625 JUMP JUMPDEST SWAP1 POP PUSH1 0x64 DUP2 PUSH2 0x3C5 SWAP2 SWAP1 PUSH2 0x26AC JUMP JUMPDEST SWAP1 POP PUSH1 0xE SLOAD PUSH1 0xC SLOAD PUSH2 0x3D7 SWAP2 SWAP1 PUSH2 0x2706 JUMP JUMPDEST PUSH1 0xD SLOAD PUSH1 0xB SLOAD PUSH2 0x3E7 SWAP2 SWAP1 PUSH2 0x2706 JUMP JUMPDEST PUSH1 0x2 PUSH2 0x3F3 SWAP2 SWAP1 PUSH2 0x26AC JUMP JUMPDEST PUSH2 0x3FD SWAP2 SWAP1 PUSH2 0x2625 JUMP JUMPDEST DUP2 PUSH2 0x408 SWAP2 SWAP1 PUSH2 0x267B JUMP JUMPDEST SWAP1 POP PUSH1 0x0 PUSH1 0xD DUP2 SWAP1 SSTORE POP PUSH1 0x0 PUSH1 0xB DUP2 SWAP1 SSTORE POP PUSH1 0x0 PUSH1 0xE DUP2 SWAP1 SSTORE POP PUSH1 0x0 PUSH1 0xC DUP2 SWAP1 SSTORE POP DUP1 PUSH1 0x8 DUP2 SWAP1 SSTORE POP DUP1 SWAP2 POP POP SWAP3 SWAP2 POP POP JUMP JUMPDEST PUSH1 0xE SLOAD DUP2 JUMP JUMPDEST PUSH1 0x5 PUSH1 0x20 MSTORE DUP2 PUSH1 0x0 MSTORE PUSH1 0x40 PUSH1 0x0 KECCAK256 PUSH1 0x20 MSTORE DUP1 PUSH1 0x0 MSTORE PUSH1 0x40 PUSH1 0x0 KECCAK256 PUSH1 0x0 SWAP2 POP SWAP2 POP POP SLOAD DUP2 JUMP JUMPDEST PUSH1 0x4 PUSH1 0x20 MSTORE DUP1 PUSH1 0x0 MSTORE PUSH1 0x40 PUSH1 0x0 KECCAK256 PUSH1 0x0 SWAP2 POP SLOAD SWAP1 PUSH2 0x100 EXP SWAP1 DIV PUSH1 0xFF AND DUP2 JUMP JUMPDEST PUSH1 0xB SLOAD DUP2 JUMP JUMPDEST PUSH1 0x3 PUSH1 0x20 MSTORE DUP1 PUSH1 0x0 MSTORE PUSH1 0x40 PUSH1 0x0 KECCAK256 PUSH1 0x0 SWAP2 POP SWAP1 POP DUP1 PUSH1 0x0 ADD SLOAD SWAP1 DUP1 PUSH1 0x1 ADD DUP1 SLOAD PUSH2 0x4B5 SWAP1 PUSH2 0x279C JUMP JUMPDEST DUP1 PUSH1 0x1F ADD PUSH1 0x20 DUP1 SWAP2 DIV MUL PUSH1 0x20 ADD PUSH1 0x40 MLOAD SWAP1 DUP2 ADD PUSH1 0x40 MSTORE DUP1 SWAP3 SWAP2 SWAP1 DUP2 DUP2 MSTORE PUSH1 0x20 ADD DUP3 DUP1 SLOAD PUSH2 0x4E1 SWAP1 PUSH2 0x279C JUMP JUMPDEST DUP1 ISZERO PUSH2 0x52E JUMPI DUP1 PUSH1 0x1F LT PUSH2 0x503 JUMPI PUSH2 0x100 DUP1 DUP4 SLOAD DIV MUL DUP4 MSTORE SWAP2 PUSH1 0x20 ADD SWAP2 PUSH2 0x52E JUMP JUMPDEST DUP3 ADD SWAP2 SWAP1 PUSH1 0x0 MSTORE PUSH1 0x20 PUSH1 0x0 KECCAK256 SWAP1 JUMPDEST DUP2 SLOAD DUP2 MSTORE SWAP1 PUSH1 0x1 ADD SWAP1 PUSH1 0x20 ADD DUP1 DUP4 GT PUSH2 0x511 JUMPI DUP3 SWAP1 SUB PUSH1 0x1F AND DUP3 ADD SWAP2 JUMPDEST POP POP POP POP POP SWAP1 DUP1 PUSH1 0x2 ADD DUP1 SLOAD PUSH2 0x543 SWAP1 PUSH2 0x279C JUMP JUMPDEST DUP1 PUSH1 0x1F ADD PUSH1 0x20 DUP1 SWAP2 DIV MUL PUSH1 0x20 ADD PUSH1 0x40 MLOAD SWAP1 DUP2 ADD PUSH1 0x40 MSTORE DUP1 SWAP3 SWAP2 SWAP1 DUP2 DUP2 MSTORE PUSH1 0x20 ADD DUP3 DUP1 SLOAD PUSH2 0x56F SWAP1 PUSH2 0x279C JUMP JUMPDEST DUP1 ISZERO PUSH2 0x5BC JUMPI DUP1 PUSH1 0x1F LT PUSH2 0x591 JUMPI PUSH2 0x100 DUP1 DUP4 SLOAD DIV MUL DUP4 MSTORE SWAP2 PUSH1 0x20 ADD SWAP2 PUSH2 0x5BC JUMP JUMPDEST DUP3 ADD SWAP2 SWAP1 PUSH1 0x0 MSTORE PUSH1 0x20 PUSH1 0x0 KECCAK256 SWAP1 JUMPDEST DUP2 SLOAD DUP2 MSTORE SWAP1 PUSH1 0x1 ADD SWAP1 PUSH1 0x20 ADD DUP1 DUP4 GT PUSH2 0x59F JUMPI DUP3 SWAP1 SUB PUSH1 0x1F AND DUP3 ADD SWAP2 JUMPDEST POP POP POP POP POP SWAP1 DUP1 PUSH1 0x3 ADD PUSH1 0x0 SWAP1 SLOAD SWAP1 PUSH2 0x100 EXP SWAP1 DIV PUSH1 0xFF AND SWAP1 DUP1 PUSH1 0x4 ADD SLOAD SWAP1 POP DUP6 JUMP JUMPDEST PUSH1 0xA SLOAD DUP2 JUMP JUMPDEST PUSH1 0xF SLOAD DUP2 JUMP JUMPDEST PUSH1 0x9 SLOAD DUP2 JUMP JUMPDEST PUSH1 0x8 SLOAD DUP2 JUMP JUMPDEST PUSH1 0x7 DUP1 PUSH1 0x0 ADD PUSH1 0x0 SWAP1 SLOAD SWAP1 PUSH2 0x100 EXP SWAP1 DIV PUSH1 0xFF AND SWAP1 POP DUP2 JUMP JUMPDEST PUSH1 0x0 DUP2 SWAP1 POP PUSH2 0x61E DUP2 PUSH2 0x8F9 JUMP JUMPDEST POP POP JUMP JUMPDEST PUSH1 0x0 DUP1 PUSH1 0x0 PUSH1 0xD SLOAD SWAP1 POP JUMPDEST PUSH1 0xB SLOAD DUP2 LT ISZERO PUSH2 0x789 JUMPI PUSH1 0x0 JUMPDEST PUSH1 0xD SLOAD DUP2 LT ISZERO PUSH2 0x775 JUMPI PUSH1 0x1 ISZERO ISZERO PUSH1 0x3 PUSH1 0x0 DUP4 DUP2 MSTORE PUSH1 0x20 ADD SWAP1 DUP2 MSTORE PUSH1 0x20 ADD PUSH1 0x0 KECCAK256 PUSH1 0x3 ADD PUSH1 0x0 SWAP1 SLOAD SWAP1 PUSH2 0x100 EXP SWAP1 DIV PUSH1 0xFF AND ISZERO ISZERO EQ ISZERO PUSH2 0x679 JUMPI PUSH2 0x762 JUMP JUMPDEST PUSH1 0x3 PUSH1 0x0 DUP3 DUP2 MSTORE PUSH1 0x20 ADD SWAP1 DUP2 MSTORE PUSH1 0x20 ADD PUSH1 0x0 KECCAK256 PUSH1 0x0 ADD SLOAD PUSH1 0x3 PUSH1 0x0 DUP5 DUP2 MSTORE PUSH1 0x20 ADD SWAP1 DUP2 MSTORE PUSH1 0x20 ADD PUSH1 0x0 KECCAK256 PUSH1 0x0 ADD SLOAD EQ ISZERO PUSH2 0x761 JUMPI DUP3 DUP1 PUSH2 0x6B8 SWAP1 PUSH2 0x27FF JUMP JUMPDEST SWAP4 POP POP PUSH1 0x3 PUSH1 0x0 DUP3 DUP2 MSTORE PUSH1 0x20 ADD SWAP1 DUP2 MSTORE PUSH1 0x20 ADD PUSH1 0x0 KECCAK256 PUSH1 0x4 ADD SLOAD PUSH1 0x3 PUSH1 0x0 DUP5 DUP2 MSTORE PUSH1 0x20 ADD SWAP1 DUP2 MSTORE PUSH1 0x20 ADD PUSH1 0x0 KECCAK256 PUSH1 0x4 ADD SLOAD EQ ISZERO PUSH2 0x6FE JUMPI DUP3 DUP1 PUSH2 0x6FA SWAP1 PUSH2 0x27FF JUMP JUMPDEST SWAP4 POP POP JUMPDEST PUSH1 0x1 PUSH1 0x3 PUSH1 0x0 DUP4 DUP2 MSTORE PUSH1 0x20 ADD SWAP1 DUP2 MSTORE PUSH1 0x20 ADD PUSH1 0x0 KECCAK256 PUSH1 0x3 ADD PUSH1 0x0 PUSH2 0x100 EXP DUP2 SLOAD DUP2 PUSH1 0xFF MUL NOT AND SWAP1 DUP4 ISZERO ISZERO MUL OR SWAP1 SSTORE POP PUSH1 0x1 PUSH1 0x3 PUSH1 0x0 DUP5 DUP2 MSTORE PUSH1 0x20 ADD SWAP1 DUP2 MSTORE PUSH1 0x20 ADD PUSH1 0x0 KECCAK256 PUSH1 0x3 ADD PUSH1 0x0 PUSH2 0x100 EXP DUP2 SLOAD DUP2 PUSH1 0xFF MUL NOT AND SWAP1 DUP4 ISZERO ISZERO MUL OR SWAP1 SSTORE POP PUSH2 0x775 JUMP JUMPDEST JUMPDEST DUP1 DUP1 PUSH2 0x76D SWAP1 PUSH2 0x27FF JUMP JUMPDEST SWAP2 POP POP PUSH2 0x63A JUMP JUMPDEST POP DUP1 DUP1 PUSH2 0x781 SWAP1 PUSH2 0x27FF JUMP JUMPDEST SWAP2 POP POP PUSH2 0x62D JUMP JUMPDEST POP DUP1 SWAP2 POP POP SWAP1 JUMP JUMPDEST PUSH1 0x0 DUP1 PUSH1 0x0 PUSH1 0xE SLOAD SWAP1 POP JUMPDEST PUSH1 0xC SLOAD DUP2 LT ISZERO PUSH2 0x8F1 JUMPI PUSH1 0x0 JUMPDEST PUSH1 0xE SLOAD DUP2 LT ISZERO PUSH2 0x8DD JUMPI PUSH1 0x1 ISZERO ISZERO PUSH1 0x4 PUSH1 0x0 DUP4 DUP2 MSTORE PUSH1 0x20 ADD SWAP1 DUP2 MSTORE PUSH1 0x20 ADD PUSH1 0x0 KECCAK256 PUSH1 0x0 SWAP1 SLOAD SWAP1 PUSH2 0x100 EXP SWAP1 DIV PUSH1 0xFF AND ISZERO ISZERO EQ ISZERO PUSH2 0x7E5 JUMPI PUSH2 0x8CA JUMP JUMPDEST PUSH1 0x6 PUSH1 0x0 DUP3 DUP2 MSTORE PUSH1 0x20 ADD SWAP1 DUP2 MSTORE PUSH1 0x20 ADD PUSH1 0x0 KECCAK256 PUSH1 0x0 PUSH1 0x1 DUP2 MSTORE PUSH1 0x20 ADD SWAP1 DUP2 MSTORE PUSH1 0x20 ADD PUSH1 0x0 KECCAK256 SLOAD PUSH1 0x6 PUSH1 0x0 DUP5 DUP2 MSTORE PUSH1 0x20 ADD SWAP1 DUP2 MSTORE PUSH1 0x20 ADD PUSH1 0x0 KECCAK256 PUSH1 0x0 PUSH1 0x1 DUP2 MSTORE PUSH1 0x20 ADD SWAP1 DUP2 MSTORE PUSH1 0x20 ADD PUSH1 0x0 KECCAK256 SLOAD EQ DUP1 ISZERO PUSH2 0x885 JUMPI POP PUSH1 0x5 PUSH1 0x0 DUP3 DUP2 MSTORE PUSH1 0x20 ADD SWAP1 DUP2 MSTORE PUSH1 0x20 ADD PUSH1 0x0 KECCAK256 PUSH1 0x0 DUP1 DUP2 MSTORE PUSH1 0x20 ADD SWAP1 DUP2 MSTORE PUSH1 0x20 ADD PUSH1 0x0 KECCAK256 SLOAD PUSH1 0x5 PUSH1 0x0 DUP5 DUP2 MSTORE PUSH1 0x20 ADD SWAP1 DUP2 MSTORE PUSH1 0x20 ADD PUSH1 0x0 KECCAK256 PUSH1 0x0 DUP1 DUP2 MSTORE PUSH1 0x20 ADD SWAP1 DUP2 MSTORE PUSH1 0x20 ADD PUSH1 0x0 KECCAK256 SLOAD EQ JUMPDEST ISZERO PUSH2 0x8C9 JUMPI DUP3 DUP1 PUSH2 0x895 SWAP1 PUSH2 0x27FF JUMP JUMPDEST SWAP4 POP POP PUSH1 0x1 PUSH1 0x4 PUSH1 0x0 DUP4 DUP2 MSTORE PUSH1 0x20 ADD SWAP1 DUP2 MSTORE PUSH1 0x20 ADD PUSH1 0x0 KECCAK256 PUSH1 0x0 PUSH2 0x100 EXP DUP2 SLOAD DUP2 PUSH1 0xFF MUL NOT AND SWAP1 DUP4 ISZERO ISZERO MUL OR SWAP1 SSTORE POP PUSH2 0x8DD JUMP JUMPDEST JUMPDEST DUP1 DUP1 PUSH2 0x8D5 SWAP1 PUSH2 0x27FF JUMP JUMPDEST SWAP2 POP POP PUSH2 0x7A9 JUMP JUMPDEST POP DUP1 DUP1 PUSH2 0x8E9 SWAP1 PUSH2 0x27FF JUMP JUMPDEST SWAP2 POP POP PUSH2 0x79C JUMP JUMPDEST POP DUP1 SWAP2 POP POP SWAP1 JUMP JUMPDEST PUSH1 0x0 DUP2 MLOAD SWAP1 POP PUSH2 0x907 PUSH2 0x2070 JUMP JUMPDEST PUSH1 0x0 DUP1 PUSH1 0x0 PUSH1 0x5 SWAP1 POP PUSH1 0x0 DUP1 PUSH1 0x0 JUMPDEST DUP8 DUP2 LT ISZERO PUSH2 0x2065 JUMPI PUSH1 0x20 PUSH1 0xF8 SHL DUP10 DUP3 DUP2 MLOAD DUP2 LT PUSH2 0x95C JUMPI PUSH32 0x4E487B7100000000000000000000000000000000000000000000000000000000 PUSH1 0x0 MSTORE PUSH1 0x32 PUSH1 0x4 MSTORE PUSH1 0x24 PUSH1 0x0 REVERT JUMPDEST PUSH1 0x20 ADD ADD MLOAD PUSH1 0xF8 SHR PUSH1 0xF8 SHL PUSH31 0xFFFFFFFFFFFFFFFFFFFFFFFFFFFFFFFFFFFFFFFFFFFFFFFFFFFFFFFFFFFFFF NOT AND EQ ISZERO PUSH2 0x994 JUMPI PUSH2 0x2052 JUMP JUMPDEST PUSH32 0x3B00000000000000000000000000000000000000000000000000000000000000 DUP10 DUP3 DUP2 MLOAD DUP2 LT PUSH2 0x9EE JUMPI PUSH32 0x4E487B7100000000000000000000000000000000000000000000000000000000 PUSH1 0x0 MSTORE PUSH1 0x32 PUSH1 0x4 MSTORE PUSH1 0x24 PUSH1 0x0 REVERT JUMPDEST PUSH1 0x20 ADD ADD MLOAD PUSH1 0xF8 SHR PUSH1 0xF8 SHL PUSH31 0xFFFFFFFFFFFFFFFFFFFFFFFFFFFFFFFFFFFFFFFFFFFFFFFFFFFFFFFFFFFFFF NOT AND EQ DUP1 PUSH2 0xAAB JUMPI POP PUSH32 0x7B00000000000000000000000000000000000000000000000000000000000000 DUP10 DUP3 DUP2 MLOAD DUP2 LT PUSH2 0xA7C JUMPI PUSH32 0x4E487B7100000000000000000000000000000000000000000000000000000000 PUSH1 0x0 MSTORE PUSH1 0x32 PUSH1 0x4 MSTORE PUSH1 0x24 PUSH1 0x0 REVERT JUMPDEST PUSH1 0x20 ADD ADD MLOAD PUSH1 0xF8 SHR PUSH1 0xF8 SHL PUSH31 0xFFFFFFFFFFFFFFFFFFFFFFFFFFFFFFFFFFFFFFFFFFFFFFFFFFFFFFFFFFFFFF NOT AND EQ JUMPDEST DUP1 PUSH2 0xB3A JUMPI POP PUSH32 0x7D00000000000000000000000000000000000000000000000000000000000000 DUP10 DUP3 DUP2 MLOAD DUP2 LT PUSH2 0xB0B JUMPI PUSH32 0x4E487B7100000000000000000000000000000000000000000000000000000000 PUSH1 0x0 MSTORE PUSH1 0x32 PUSH1 0x4 MSTORE PUSH1 0x24 PUSH1 0x0 REVERT JUMPDEST PUSH1 0x20 ADD ADD MLOAD PUSH1 0xF8 SHR PUSH1 0xF8 SHL PUSH31 0xFFFFFFFFFFFFFFFFFFFFFFFFFFFFFFFFFFFFFFFFFFFFFFFFFFFFFFFFFFFFFF NOT AND EQ JUMPDEST ISZERO PUSH2 0xCED JUMPI PUSH1 0x1 DUP5 EQ ISZERO PUSH2 0xC31 JUMPI DUP7 PUSH1 0x80 ADD DUP1 MLOAD DUP1 SWAP2 SWAP1 PUSH2 0xB5A SWAP1 PUSH2 0x27FF JUMP JUMPDEST DUP2 MSTORE POP POP DUP7 PUSH1 0x3 PUSH1 0x0 PUSH1 0xB PUSH1 0x0 DUP2 SLOAD DUP1 SWAP3 SWAP2 SWAP1 PUSH2 0xB76 SWAP1 PUSH2 0x27FF JUMP JUMPDEST SWAP2 SWAP1 POP SSTORE DUP2 MSTORE PUSH1 0x20 ADD SWAP1 DUP2 MSTORE PUSH1 0x20 ADD PUSH1 0x0 KECCAK256 PUSH1 0x0 DUP3 ADD MLOAD DUP2 PUSH1 0x0 ADD SSTORE PUSH1 0x20 DUP3 ADD MLOAD DUP2 PUSH1 0x1 ADD SWAP1 DUP1 MLOAD SWAP1 PUSH1 0x20 ADD SWAP1 PUSH2 0xBAE SWAP3 SWAP2 SWAP1 PUSH2 0x20A1 JUMP JUMPDEST POP PUSH1 0x40 DUP3 ADD MLOAD DUP2 PUSH1 0x2 ADD SWAP1 DUP1 MLOAD SWAP1 PUSH1 0x20 ADD SWAP1 PUSH2 0xBCB SWAP3 SWAP2 SWAP1 PUSH2 0x20A1 JUMP JUMPDEST POP PUSH1 0x60 DUP3 ADD MLOAD DUP2 PUSH1 0x3 ADD PUSH1 0x0 PUSH2 0x100 EXP DUP2 SLOAD DUP2 PUSH1 0xFF MUL NOT AND SWAP1 DUP4 ISZERO ISZERO MUL OR SWAP1 SSTORE POP PUSH1 0x80 DUP3 ADD MLOAD DUP2 PUSH1 0x4 ADD SSTORE SWAP1 POP POP DUP7 PUSH1 0x0 ADD MLOAD PUSH1 0x2 PUSH1 0x0 PUSH1 0xF SLOAD DUP2 MSTORE PUSH1 0x20 ADD SWAP1 DUP2 MSTORE PUSH1 0x20 ADD PUSH1 0x0 KECCAK256 DUP2 SWAP1 SSTORE POP PUSH1 0x0 DUP8 PUSH1 0x80 ADD DUP2 DUP2 MSTORE POP POP PUSH1 0x0 DUP1 SHL PUSH1 0xF DUP2 SWAP1 SSTORE POP PUSH2 0xCD4 JUMP JUMPDEST PUSH1 0x5 DUP5 EQ ISZERO PUSH2 0xCD3 JUMPI PUSH1 0x2 PUSH1 0x0 PUSH1 0xF SLOAD DUP2 MSTORE PUSH1 0x20 ADD SWAP1 DUP2 MSTORE PUSH1 0x20 ADD PUSH1 0x0 KECCAK256 SLOAD PUSH1 0x5 PUSH1 0x0 PUSH1 0xC SLOAD DUP2 MSTORE PUSH1 0x20 ADD SWAP1 DUP2 MSTORE PUSH1 0x20 ADD PUSH1 0x0 KECCAK256 PUSH1 0x0 DUP6 DUP1 PUSH2 0xC72 SWAP1 PUSH2 0x27FF JUMP JUMPDEST SWAP7 POP DUP2 MSTORE PUSH1 0x20 ADD SWAP1 DUP2 MSTORE PUSH1 0x20 ADD PUSH1 0x0 KECCAK256 DUP2 SWAP1 SSTORE POP PUSH1 0x0 DUP1 SHL PUSH1 0xF DUP2 SWAP1 SSTORE POP PUSH1 0x0 PUSH1 0x4 PUSH1 0x0 PUSH1 0xC PUSH1 0x0 DUP2 SLOAD DUP1 SWAP3 SWAP2 SWAP1 PUSH2 0xCA9 SWAP1 PUSH2 0x27FF JUMP JUMPDEST SWAP2 SWAP1 POP SSTORE DUP2 MSTORE PUSH1 0x20 ADD SWAP1 DUP2 MSTORE PUSH1 0x20 ADD PUSH1 0x0 KECCAK256 PUSH1 0x0 PUSH2 0x100 EXP DUP2 SLOAD DUP2 PUSH1 0xFF MUL NOT AND SWAP1 DUP4 ISZERO ISZERO MUL OR SWAP1 SSTORE POP JUMPDEST JUMPDEST PUSH1 0x0 SWAP6 POP PUSH1 0x0 SWAP2 POP PUSH1 0x0 SWAP3 POP PUSH1 0x5 SWAP4 POP PUSH1 0x0 SWAP5 POP PUSH2 0x2052 JUMP JUMPDEST PUSH1 0x6D PUSH1 0xF8 SHL DUP10 DUP3 DUP2 MLOAD DUP2 LT PUSH2 0xD2B JUMPI PUSH32 0x4E487B7100000000000000000000000000000000000000000000000000000000 PUSH1 0x0 MSTORE PUSH1 0x32 PUSH1 0x4 MSTORE PUSH1 0x24 PUSH1 0x0 REVERT JUMPDEST PUSH1 0x20 ADD ADD MLOAD PUSH1 0xF8 SHR PUSH1 0xF8 SHL PUSH31 0xFFFFFFFFFFFFFFFFFFFFFFFFFFFFFFFFFFFFFFFFFFFFFFFFFFFFFFFFFFFFFF NOT AND EQ DUP1 ISZERO PUSH2 0xD70 JUMPI POP DUP8 PUSH1 0x3 DUP3 PUSH2 0xD6E SWAP2 SWAP1 PUSH2 0x2625 JUMP JUMPDEST LT JUMPDEST ISZERO PUSH2 0xF31 JUMPI PUSH1 0x61 PUSH1 0xF8 SHL DUP10 PUSH1 0x1 DUP4 PUSH2 0xD88 SWAP2 SWAP1 PUSH2 0x2625 JUMP JUMPDEST DUP2 MLOAD DUP2 LT PUSH2 0xDBF JUMPI PUSH32 0x4E487B7100000000000000000000000000000000000000000000000000000000 PUSH1 0x0 MSTORE PUSH1 0x32 PUSH1 0x4 MSTORE PUSH1 0x24 PUSH1 0x0 REVERT JUMPDEST PUSH1 0x20 ADD ADD MLOAD PUSH1 0xF8 SHR PUSH1 0xF8 SHL PUSH31 0xFFFFFFFFFFFFFFFFFFFFFFFFFFFFFFFFFFFFFFFFFFFFFFFFFFFFFFFFFFFFFF NOT AND EQ DUP1 ISZERO PUSH2 0xE6D JUMPI POP PUSH1 0x69 PUSH1 0xF8 SHL DUP10 PUSH1 0x2 DUP4 PUSH2 0xE07 SWAP2 SWAP1 PUSH2 0x2625 JUMP JUMPDEST DUP2 MLOAD DUP2 LT PUSH2 0xE3E JUMPI PUSH32 0x4E487B7100000000000000000000000000000000000000000000000000000000 PUSH1 0x0 MSTORE PUSH1 0x32 PUSH1 0x4 MSTORE PUSH1 0x24 PUSH1 0x0 REVERT JUMPDEST PUSH1 0x20 ADD ADD MLOAD PUSH1 0xF8 SHR PUSH1 0xF8 SHL PUSH31 0xFFFFFFFFFFFFFFFFFFFFFFFFFFFFFFFFFFFFFFFFFFFFFFFFFFFFFFFFFFFFFF NOT AND EQ JUMPDEST DUP1 ISZERO PUSH2 0xEED JUMPI POP PUSH1 0x6E PUSH1 0xF8 SHL DUP10 PUSH1 0x3 DUP4 PUSH2 0xE87 SWAP2 SWAP1 PUSH2 0x2625 JUMP JUMPDEST DUP2 MLOAD DUP2 LT PUSH2 0xEBE JUMPI PUSH32 0x4E487B7100000000000000000000000000000000000000000000000000000000 PUSH1 0x0 MSTORE PUSH1 0x32 PUSH1 0x4 MSTORE PUSH1 0x24 PUSH1 0x0 REVERT JUMPDEST PUSH1 0x20 ADD ADD MLOAD PUSH1 0xF8 SHR PUSH1 0xF8 SHL PUSH31 0xFFFFFFFFFFFFFFFFFFFFFFFFFFFFFFFFFFFFFFFFFFFFFFFFFFFFFFFFFFFFFF NOT AND EQ JUMPDEST ISZERO PUSH2 0xF2C JUMPI PUSH1 0x0 PUSH1 0x40 MLOAD PUSH2 0xF00 SWAP1 PUSH2 0x24A2 JUMP JUMPDEST SWAP1 DUP2 MSTORE PUSH1 0x20 ADD PUSH1 0x40 MLOAD DUP1 SWAP2 SUB SWAP1 KECCAK256 SLOAD DUP8 PUSH1 0x0 ADD DUP2 DUP2 MSTORE POP POP PUSH1 0x3 DUP2 PUSH2 0xF25 SWAP2 SWAP1 PUSH2 0x2625 JUMP JUMPDEST SWAP1 POP PUSH1 0x2 SWAP4 POP JUMPDEST PUSH2 0x2051 JUMP JUMPDEST PUSH1 0x73 PUSH1 0xF8 SHL DUP10 DUP3 DUP2 MLOAD DUP2 LT PUSH2 0xF6F JUMPI PUSH32 0x4E487B7100000000000000000000000000000000000000000000000000000000 PUSH1 0x0 MSTORE PUSH1 0x32 PUSH1 0x4 MSTORE PUSH1 0x24 PUSH1 0x0 REVERT JUMPDEST PUSH1 0x20 ADD ADD MLOAD PUSH1 0xF8 SHR PUSH1 0xF8 SHL PUSH31 0xFFFFFFFFFFFFFFFFFFFFFFFFFFFFFFFFFFFFFFFFFFFFFFFFFFFFFFFFFFFFFF NOT AND EQ DUP1 ISZERO PUSH2 0xFB4 JUMPI POP DUP8 PUSH1 0x4 DUP3 PUSH2 0xFB2 SWAP2 SWAP1 PUSH2 0x2625 JUMP JUMPDEST LT JUMPDEST ISZERO PUSH2 0x11F5 JUMPI PUSH1 0x63 PUSH1 0xF8 SHL DUP10 PUSH1 0x1 DUP4 PUSH2 0xFCC SWAP2 SWAP1 PUSH2 0x2625 JUMP JUMPDEST DUP2 MLOAD DUP2 LT PUSH2 0x1003 JUMPI PUSH32 0x4E487B7100000000000000000000000000000000000000000000000000000000 PUSH1 0x0 MSTORE PUSH1 0x32 PUSH1 0x4 MSTORE PUSH1 0x24 PUSH1 0x0 REVERT JUMPDEST PUSH1 0x20 ADD ADD MLOAD PUSH1 0xF8 SHR PUSH1 0xF8 SHL PUSH31 0xFFFFFFFFFFFFFFFFFFFFFFFFFFFFFFFFFFFFFFFFFFFFFFFFFFFFFFFFFFFFFF NOT AND EQ DUP1 ISZERO PUSH2 0x10B1 JUMPI POP PUSH1 0x61 PUSH1 0xF8 SHL DUP10 PUSH1 0x2 DUP4 PUSH2 0x104B SWAP2 SWAP1 PUSH2 0x2625 JUMP JUMPDEST DUP2 MLOAD DUP2 LT PUSH2 0x1082 JUMPI PUSH32 0x4E487B7100000000000000000000000000000000000000000000000000000000 PUSH1 0x0 MSTORE PUSH1 0x32 PUSH1 0x4 MSTORE PUSH1 0x24 PUSH1 0x0 REVERT JUMPDEST PUSH1 0x20 ADD ADD MLOAD PUSH1 0xF8 SHR PUSH1 0xF8 SHL PUSH31 0xFFFFFFFFFFFFFFFFFFFFFFFFFFFFFFFFFFFFFFFFFFFFFFFFFFFFFFFFFFFFFF NOT AND EQ JUMPDEST DUP1 ISZERO PUSH2 0x1131 JUMPI POP PUSH1 0x6E PUSH1 0xF8 SHL DUP10 PUSH1 0x3 DUP4 PUSH2 0x10CB SWAP2 SWAP1 PUSH2 0x2625 JUMP JUMPDEST DUP2 MLOAD DUP2 LT PUSH2 0x1102 JUMPI PUSH32 0x4E487B7100000000000000000000000000000000000000000000000000000000 PUSH1 0x0 MSTORE PUSH1 0x32 PUSH1 0x4 MSTORE PUSH1 0x24 PUSH1 0x0 REVERT JUMPDEST PUSH1 0x20 ADD ADD MLOAD PUSH1 0xF8 SHR PUSH1 0xF8 SHL PUSH31 0xFFFFFFFFFFFFFFFFFFFFFFFFFFFFFFFFFFFFFFFFFFFFFFFFFFFFFFFFFFFFFF NOT AND EQ JUMPDEST DUP1 ISZERO PUSH2 0x11B1 JUMPI POP PUSH1 0x66 PUSH1 0xF8 SHL DUP10 PUSH1 0x4 DUP4 PUSH2 0x114B SWAP2 SWAP1 PUSH2 0x2625 JUMP JUMPDEST DUP2 MLOAD DUP2 LT PUSH2 0x1182 JUMPI PUSH32 0x4E487B7100000000000000000000000000000000000000000000000000000000 PUSH1 0x0 MSTORE PUSH1 0x32 PUSH1 0x4 MSTORE PUSH1 0x24 PUSH1 0x0 REVERT JUMPDEST PUSH1 0x20 ADD ADD MLOAD PUSH1 0xF8 SHR PUSH1 0xF8 SHL PUSH31 0xFFFFFFFFFFFFFFFFFFFFFFFFFFFFFFFFFFFFFFFFFFFFFFFFFFFFFFFFFFFFFF NOT AND EQ JUMPDEST ISZERO PUSH2 0x11F0 JUMPI PUSH1 0x0 PUSH1 0x40 MLOAD PUSH2 0x11C4 SWAP1 PUSH2 0x24CC JUMP JUMPDEST SWAP1 DUP2 MSTORE PUSH1 0x20 ADD PUSH1 0x40 MLOAD DUP1 SWAP2 SUB SWAP1 KECCAK256 SLOAD DUP8 PUSH1 0x0 ADD DUP2 DUP2 MSTORE POP POP PUSH1 0x4 DUP2 PUSH2 0x11E9 SWAP2 SWAP1 PUSH2 0x2625 JUMP JUMPDEST SWAP1 POP PUSH1 0x3 SWAP4 POP JUMPDEST PUSH2 0x2050 JUMP JUMPDEST PUSH1 0x70 PUSH1 0xF8 SHL DUP10 DUP3 DUP2 MLOAD DUP2 LT PUSH2 0x1233 JUMPI PUSH32 0x4E487B7100000000000000000000000000000000000000000000000000000000 PUSH1 0x0 MSTORE PUSH1 0x32 PUSH1 0x4 MSTORE PUSH1 0x24 PUSH1 0x0 REVERT JUMPDEST PUSH1 0x20 ADD ADD MLOAD PUSH1 0xF8 SHR PUSH1 0xF8 SHL PUSH31 0xFFFFFFFFFFFFFFFFFFFFFFFFFFFFFFFFFFFFFFFFFFFFFFFFFFFFFFFFFFFFFF NOT AND EQ DUP1 ISZERO PUSH2 0x1278 JUMPI POP DUP8 PUSH1 0x5 DUP3 PUSH2 0x1276 SWAP2 SWAP1 PUSH2 0x2625 JUMP JUMPDEST LT JUMPDEST ISZERO PUSH2 0x1539 JUMPI PUSH1 0x72 PUSH1 0xF8 SHL DUP10 PUSH1 0x1 DUP4 PUSH2 0x1290 SWAP2 SWAP1 PUSH2 0x2625 JUMP JUMPDEST DUP2 MLOAD DUP2 LT PUSH2 0x12C7 JUMPI PUSH32 0x4E487B7100000000000000000000000000000000000000000000000000000000 PUSH1 0x0 MSTORE PUSH1 0x32 PUSH1 0x4 MSTORE PUSH1 0x24 PUSH1 0x0 REVERT JUMPDEST PUSH1 0x20 ADD ADD MLOAD PUSH1 0xF8 SHR PUSH1 0xF8 SHL PUSH31 0xFFFFFFFFFFFFFFFFFFFFFFFFFFFFFFFFFFFFFFFFFFFFFFFFFFFFFFFFFFFFFF NOT AND EQ DUP1 ISZERO PUSH2 0x1375 JUMPI POP PUSH1 0x69 PUSH1 0xF8 SHL DUP10 PUSH1 0x2 DUP4 PUSH2 0x130F SWAP2 SWAP1 PUSH2 0x2625 JUMP JUMPDEST DUP2 MLOAD DUP2 LT PUSH2 0x1346 JUMPI PUSH32 0x4E487B7100000000000000000000000000000000000000000000000000000000 PUSH1 0x0 MSTORE PUSH1 0x32 PUSH1 0x4 MSTORE PUSH1 0x24 PUSH1 0x0 REVERT JUMPDEST PUSH1 0x20 ADD ADD MLOAD PUSH1 0xF8 SHR PUSH1 0xF8 SHL PUSH31 0xFFFFFFFFFFFFFFFFFFFFFFFFFFFFFFFFFFFFFFFFFFFFFFFFFFFFFFFFFFFFFF NOT AND EQ JUMPDEST DUP1 ISZERO PUSH2 0x13F5 JUMPI POP PUSH1 0x6E PUSH1 0xF8 SHL DUP10 PUSH1 0x3 DUP4 PUSH2 0x138F SWAP2 SWAP1 PUSH2 0x2625 JUMP JUMPDEST DUP2 MLOAD DUP2 LT PUSH2 0x13C6 JUMPI PUSH32 0x4E487B7100000000000000000000000000000000000000000000000000000000 PUSH1 0x0 MSTORE PUSH1 0x32 PUSH1 0x4 MSTORE PUSH1 0x24 PUSH1 0x0 REVERT JUMPDEST PUSH1 0x20 ADD ADD MLOAD PUSH1 0xF8 SHR PUSH1 0xF8 SHL PUSH31 0xFFFFFFFFFFFFFFFFFFFFFFFFFFFFFFFFFFFFFFFFFFFFFFFFFFFFFFFFFFFFFF NOT AND EQ JUMPDEST DUP1 ISZERO PUSH2 0x1475 JUMPI POP PUSH1 0x74 PUSH1 0xF8 SHL DUP10 PUSH1 0x4 DUP4 PUSH2 0x140F SWAP2 SWAP1 PUSH2 0x2625 JUMP JUMPDEST DUP2 MLOAD DUP2 LT PUSH2 0x1446 JUMPI PUSH32 0x4E487B7100000000000000000000000000000000000000000000000000000000 PUSH1 0x0 MSTORE PUSH1 0x32 PUSH1 0x4 MSTORE PUSH1 0x24 PUSH1 0x0 REVERT JUMPDEST PUSH1 0x20 ADD ADD MLOAD PUSH1 0xF8 SHR PUSH1 0xF8 SHL PUSH31 0xFFFFFFFFFFFFFFFFFFFFFFFFFFFFFFFFFFFFFFFFFFFFFFFFFFFFFFFFFFFFFF NOT AND EQ JUMPDEST DUP1 ISZERO PUSH2 0x14F5 JUMPI POP PUSH1 0x66 PUSH1 0xF8 SHL DUP10 PUSH1 0x5 DUP4 PUSH2 0x148F SWAP2 SWAP1 PUSH2 0x2625 JUMP JUMPDEST DUP2 MLOAD DUP2 LT PUSH2 0x14C6 JUMPI PUSH32 0x4E487B7100000000000000000000000000000000000000000000000000000000 PUSH1 0x0 MSTORE PUSH1 0x32 PUSH1 0x4 MSTORE PUSH1 0x24 PUSH1 0x0 REVERT JUMPDEST PUSH1 0x20 ADD ADD MLOAD PUSH1 0xF8 SHR PUSH1 0xF8 SHL PUSH31 0xFFFFFFFFFFFFFFFFFFFFFFFFFFFFFFFFFFFFFFFFFFFFFFFFFFFFFFFFFFFFFF NOT AND EQ JUMPDEST ISZERO PUSH2 0x1534 JUMPI PUSH1 0x0 PUSH1 0x40 MLOAD PUSH2 0x1508 SWAP1 PUSH2 0x2478 JUMP JUMPDEST SWAP1 DUP2 MSTORE PUSH1 0x20 ADD PUSH1 0x40 MLOAD DUP1 SWAP2 SUB SWAP1 KECCAK256 SLOAD DUP8 PUSH1 0x0 ADD DUP2 DUP2 MSTORE POP POP PUSH1 0x5 DUP2 PUSH2 0x152D SWAP2 SWAP1 PUSH2 0x2625 JUMP JUMPDEST SWAP1 POP PUSH1 0x4 SWAP4 POP JUMPDEST PUSH2 0x204F JUMP JUMPDEST PUSH1 0x69 PUSH1 0xF8 SHL DUP10 DUP3 DUP2 MLOAD DUP2 LT PUSH2 0x1577 JUMPI PUSH32 0x4E487B7100000000000000000000000000000000000000000000000000000000 PUSH1 0x0 MSTORE PUSH1 0x32 PUSH1 0x4 MSTORE PUSH1 0x24 PUSH1 0x0 REVERT JUMPDEST PUSH1 0x20 ADD ADD MLOAD PUSH1 0xF8 SHR PUSH1 0xF8 SHL PUSH31 0xFFFFFFFFFFFFFFFFFFFFFFFFFFFFFFFFFFFFFFFFFFFFFFFFFFFFFFFFFFFFFF NOT AND EQ DUP1 ISZERO PUSH2 0x15BC JUMPI POP DUP8 PUSH1 0x2 DUP3 PUSH2 0x15BA SWAP2 SWAP1 PUSH2 0x2625 JUMP JUMPDEST LT JUMPDEST ISZERO PUSH2 0x1701 JUMPI PUSH1 0x6E PUSH1 0xF8 SHL DUP10 PUSH1 0x1 DUP4 PUSH2 0x15D4 SWAP2 SWAP1 PUSH2 0x2625 JUMP JUMPDEST DUP2 MLOAD DUP2 LT PUSH2 0x160B JUMPI PUSH32 0x4E487B7100000000000000000000000000000000000000000000000000000000 PUSH1 0x0 MSTORE PUSH1 0x32 PUSH1 0x4 MSTORE PUSH1 0x24 PUSH1 0x0 REVERT JUMPDEST PUSH1 0x20 ADD ADD MLOAD PUSH1 0xF8 SHR PUSH1 0xF8 SHL PUSH31 0xFFFFFFFFFFFFFFFFFFFFFFFFFFFFFFFFFFFFFFFFFFFFFFFFFFFFFFFFFFFFFF NOT AND EQ DUP1 ISZERO PUSH2 0x16B9 JUMPI POP PUSH1 0x74 PUSH1 0xF8 SHL DUP10 PUSH1 0x2 DUP4 PUSH2 0x1653 SWAP2 SWAP1 PUSH2 0x2625 JUMP JUMPDEST DUP2 MLOAD DUP2 LT PUSH2 0x168A JUMPI PUSH32 0x4E487B7100000000000000000000000000000000000000000000000000000000 PUSH1 0x0 MSTORE PUSH1 0x32 PUSH1 0x4 MSTORE PUSH1 0x24 PUSH1 0x0 REVERT JUMPDEST PUSH1 0x20 ADD ADD MLOAD PUSH1 0xF8 SHR PUSH1 0xF8 SHL PUSH31 0xFFFFFFFFFFFFFFFFFFFFFFFFFFFFFFFFFFFFFFFFFFFFFFFFFFFFFFFFFFFFFF NOT AND EQ JUMPDEST ISZERO PUSH2 0x16FC JUMPI PUSH1 0x0 PUSH1 0x40 MLOAD PUSH2 0x16CC SWAP1 PUSH2 0x2463 JUMP JUMPDEST SWAP1 DUP2 MSTORE PUSH1 0x20 ADD PUSH1 0x40 MLOAD DUP1 SWAP2 SUB SWAP1 KECCAK256 SLOAD DUP8 PUSH1 0x0 ADD DUP2 DUP2 MSTORE POP POP PUSH1 0x2 DUP2 PUSH2 0x16F1 SWAP2 SWAP1 PUSH2 0x2625 JUMP JUMPDEST SWAP1 POP PUSH1 0x1 SWAP6 POP PUSH1 0x1 SWAP4 POP JUMPDEST PUSH2 0x204E JUMP JUMPDEST PUSH1 0x66 PUSH1 0xF8 SHL DUP10 DUP3 DUP2 MLOAD DUP2 LT PUSH2 0x173F JUMPI PUSH32 0x4E487B7100000000000000000000000000000000000000000000000000000000 PUSH1 0x0 MSTORE PUSH1 0x32 PUSH1 0x4 MSTORE PUSH1 0x24 PUSH1 0x0 REVERT JUMPDEST PUSH1 0x20 ADD ADD MLOAD PUSH1 0xF8 SHR PUSH1 0xF8 SHL PUSH31 0xFFFFFFFFFFFFFFFFFFFFFFFFFFFFFFFFFFFFFFFFFFFFFFFFFFFFFFFFFFFFFF NOT AND EQ DUP1 ISZERO PUSH2 0x1784 JUMPI POP DUP8 PUSH1 0x4 DUP3 PUSH2 0x1782 SWAP2 SWAP1 PUSH2 0x2625 JUMP JUMPDEST LT JUMPDEST ISZERO PUSH2 0x19C9 JUMPI PUSH1 0x6C PUSH1 0xF8 SHL DUP10 PUSH1 0x1 DUP4 PUSH2 0x179C SWAP2 SWAP1 PUSH2 0x2625 JUMP JUMPDEST DUP2 MLOAD DUP2 LT PUSH2 0x17D3 JUMPI PUSH32 0x4E487B7100000000000000000000000000000000000000000000000000000000 PUSH1 0x0 MSTORE PUSH1 0x32 PUSH1 0x4 MSTORE PUSH1 0x24 PUSH1 0x0 REVERT JUMPDEST PUSH1 0x20 ADD ADD MLOAD PUSH1 0xF8 SHR PUSH1 0xF8 SHL PUSH31 0xFFFFFFFFFFFFFFFFFFFFFFFFFFFFFFFFFFFFFFFFFFFFFFFFFFFFFFFFFFFFFF NOT AND EQ DUP1 ISZERO PUSH2 0x1881 JUMPI POP PUSH1 0x6F PUSH1 0xF8 SHL DUP10 PUSH1 0x2 DUP4 PUSH2 0x181B SWAP2 SWAP1 PUSH2 0x2625 JUMP JUMPDEST DUP2 MLOAD DUP2 LT PUSH2 0x1852 JUMPI PUSH32 0x4E487B7100000000000000000000000000000000000000000000000000000000 PUSH1 0x0 MSTORE PUSH1 0x32 PUSH1 0x4 MSTORE PUSH1 0x24 PUSH1 0x0 REVERT JUMPDEST PUSH1 0x20 ADD ADD MLOAD PUSH1 0xF8 SHR PUSH1 0xF8 SHL PUSH31 0xFFFFFFFFFFFFFFFFFFFFFFFFFFFFFFFFFFFFFFFFFFFFFFFFFFFFFFFFFFFFFF NOT AND EQ JUMPDEST DUP1 ISZERO PUSH2 0x1901 JUMPI POP PUSH1 0x61 PUSH1 0xF8 SHL DUP10 PUSH1 0x3 DUP4 PUSH2 0x189B SWAP2 SWAP1 PUSH2 0x2625 JUMP JUMPDEST DUP2 MLOAD DUP2 LT PUSH2 0x18D2 JUMPI PUSH32 0x4E487B7100000000000000000000000000000000000000000000000000000000 PUSH1 0x0 MSTORE PUSH1 0x32 PUSH1 0x4 MSTORE PUSH1 0x24 PUSH1 0x0 REVERT JUMPDEST PUSH1 0x20 ADD ADD MLOAD PUSH1 0xF8 SHR PUSH1 0xF8 SHL PUSH31 0xFFFFFFFFFFFFFFFFFFFFFFFFFFFFFFFFFFFFFFFFFFFFFFFFFFFFFFFFFFFFFF NOT AND EQ JUMPDEST DUP1 ISZERO PUSH2 0x1981 JUMPI POP PUSH1 0x74 PUSH1 0xF8 SHL DUP10 PUSH1 0x4 DUP4 PUSH2 0x191B SWAP2 SWAP1 PUSH2 0x2625 JUMP JUMPDEST DUP2 MLOAD DUP2 LT PUSH2 0x1952 JUMPI PUSH32 0x4E487B7100000000000000000000000000000000000000000000000000000000 PUSH1 0x0 MSTORE PUSH1 0x32 PUSH1 0x4 MSTORE PUSH1 0x24 PUSH1 0x0 REVERT JUMPDEST PUSH1 0x20 ADD ADD MLOAD PUSH1 0xF8 SHR PUSH1 0xF8 SHL PUSH31 0xFFFFFFFFFFFFFFFFFFFFFFFFFFFFFFFFFFFFFFFFFFFFFFFFFFFFFFFFFFFFFF NOT AND EQ JUMPDEST ISZERO PUSH2 0x19C4 JUMPI PUSH1 0x0 PUSH1 0x40 MLOAD PUSH2 0x1994 SWAP1 PUSH2 0x248D JUMP JUMPDEST SWAP1 DUP2 MSTORE PUSH1 0x20 ADD PUSH1 0x40 MLOAD DUP1 SWAP2 SUB SWAP1 KECCAK256 SLOAD DUP8 PUSH1 0x0 ADD DUP2 DUP2 MSTORE POP POP PUSH1 0x4 DUP2 PUSH2 0x19B9 SWAP2 SWAP1 PUSH2 0x2625 JUMP JUMPDEST SWAP1 POP PUSH1 0x1 SWAP6 POP PUSH1 0x1 SWAP4 POP JUMPDEST PUSH2 0x204D JUMP JUMPDEST DUP6 ISZERO PUSH2 0x1B9B JUMPI PUSH1 0x2C PUSH1 0xF8 SHL DUP10 DUP3 DUP2 MLOAD DUP2 LT PUSH2 0x1A0D JUMPI PUSH32 0x4E487B7100000000000000000000000000000000000000000000000000000000 PUSH1 0x0 MSTORE PUSH1 0x32 PUSH1 0x4 MSTORE PUSH1 0x24 PUSH1 0x0 REVERT JUMPDEST PUSH1 0x20 ADD ADD MLOAD PUSH1 0xF8 SHR PUSH1 0xF8 SHL PUSH31 0xFFFFFFFFFFFFFFFFFFFFFFFFFFFFFFFFFFFFFFFFFFFFFFFFFFFFFFFFFFFFFF NOT AND EQ PUSH2 0x1B48 JUMPI DUP9 DUP2 DUP2 MLOAD DUP2 LT PUSH2 0x1A78 JUMPI PUSH32 0x4E487B7100000000000000000000000000000000000000000000000000000000 PUSH1 0x0 MSTORE PUSH1 0x32 PUSH1 0x4 MSTORE PUSH1 0x24 PUSH1 0x0 REVERT JUMPDEST PUSH1 0x20 ADD ADD MLOAD PUSH1 0xF8 SHR PUSH1 0xF8 SHL PUSH31 0xFFFFFFFFFFFFFFFFFFFFFFFFFFFFFFFFFFFFFFFFFFFFFFFFFFFFFFFFFFFFFF NOT AND PUSH1 0x9 DUP2 SWAP1 SSTORE POP PUSH1 0x8 DUP6 PUSH2 0x1AB8 SWAP2 SWAP1 PUSH2 0x26AC JUMP JUMPDEST PUSH1 0xFF PUSH1 0xF8 SHL DUP11 DUP4 DUP2 MLOAD DUP2 LT PUSH2 0x1AF6 JUMPI PUSH32 0x4E487B7100000000000000000000000000000000000000000000000000000000 PUSH1 0x0 MSTORE PUSH1 0x32 PUSH1 0x4 MSTORE PUSH1 0x24 PUSH1 0x0 REVERT JUMPDEST PUSH1 0x20 ADD ADD MLOAD PUSH1 0xF8 SHR PUSH1 0xF8 SHL AND PUSH31 0xFFFFFFFFFFFFFFFFFFFFFFFFFFFFFFFFFFFFFFFFFFFFFFFFFFFFFFFFFFFFFF NOT AND SWAP1 SHR PUSH1 0xF PUSH1 0x0 DUP3 DUP3 SLOAD OR SWAP3 POP POP DUP2 SWAP1 SSTORE POP DUP5 DUP1 PUSH2 0x1B40 SWAP1 PUSH2 0x27FF JUMP JUMPDEST SWAP6 POP POP PUSH2 0x1B96 JUMP JUMPDEST DUP7 PUSH1 0x0 ADD MLOAD PUSH1 0x2 PUSH1 0x0 PUSH1 0xF SLOAD DUP2 MSTORE PUSH1 0x20 ADD SWAP1 DUP2 MSTORE PUSH1 0x20 ADD PUSH1 0x0 KECCAK256 DUP2 SWAP1 SSTORE POP PUSH1 0x0 SWAP5 POP DUP7 PUSH1 0x80 ADD DUP1 MLOAD DUP1 SWAP2 SWAP1 PUSH2 0x1B7C SWAP1 PUSH2 0x27FF JUMP JUMPDEST DUP2 MSTORE POP POP PUSH1 0x0 DUP1 SHL PUSH1 0xF DUP2 SWAP1 SSTORE POP PUSH1 0x2C PUSH1 0x0 SHL PUSH1 0xA DUP2 SWAP1 SSTORE POP JUMPDEST PUSH2 0x204C JUMP JUMPDEST PUSH1 0x5 DUP5 EQ ISZERO PUSH2 0x204B JUMPI PUSH1 0x60 PUSH1 0xF8 SHL DUP10 DUP3 DUP2 MLOAD DUP2 LT PUSH2 0x1BE2 JUMPI PUSH32 0x4E487B7100000000000000000000000000000000000000000000000000000000 PUSH1 0x0 MSTORE PUSH1 0x32 PUSH1 0x4 MSTORE PUSH1 0x24 PUSH1 0x0 REVERT JUMPDEST PUSH1 0x20 ADD ADD MLOAD PUSH1 0xF8 SHR PUSH1 0xF8 SHL PUSH31 0xFFFFFFFFFFFFFFFFFFFFFFFFFFFFFFFFFFFFFFFFFFFFFFFFFFFFFFFFFFFFFF NOT AND GT DUP1 ISZERO PUSH2 0x1C84 JUMPI POP PUSH1 0x7B PUSH1 0xF8 SHL DUP10 DUP3 DUP2 MLOAD DUP2 LT PUSH2 0x1C55 JUMPI PUSH32 0x4E487B7100000000000000000000000000000000000000000000000000000000 PUSH1 0x0 MSTORE PUSH1 0x32 PUSH1 0x4 MSTORE PUSH1 0x24 PUSH1 0x0 REVERT JUMPDEST PUSH1 0x20 ADD ADD MLOAD PUSH1 0xF8 SHR PUSH1 0xF8 SHL PUSH31 0xFFFFFFFFFFFFFFFFFFFFFFFFFFFFFFFFFFFFFFFFFFFFFFFFFFFFFFFFFFFFFF NOT AND LT JUMPDEST ISZERO PUSH2 0x1D92 JUMPI DUP9 DUP2 DUP2 MLOAD DUP2 LT PUSH2 0x1CC2 JUMPI PUSH32 0x4E487B7100000000000000000000000000000000000000000000000000000000 PUSH1 0x0 MSTORE PUSH1 0x32 PUSH1 0x4 MSTORE PUSH1 0x24 PUSH1 0x0 REVERT JUMPDEST PUSH1 0x20 ADD ADD MLOAD PUSH1 0xF8 SHR PUSH1 0xF8 SHL PUSH31 0xFFFFFFFFFFFFFFFFFFFFFFFFFFFFFFFFFFFFFFFFFFFFFFFFFFFFFFFFFFFFFF NOT AND PUSH1 0x9 DUP2 SWAP1 SSTORE POP PUSH1 0x8 DUP6 PUSH2 0x1D02 SWAP2 SWAP1 PUSH2 0x26AC JUMP JUMPDEST PUSH1 0xFF PUSH1 0xF8 SHL DUP11 DUP4 DUP2 MLOAD DUP2 LT PUSH2 0x1D40 JUMPI PUSH32 0x4E487B7100000000000000000000000000000000000000000000000000000000 PUSH1 0x0 MSTORE PUSH1 0x32 PUSH1 0x4 MSTORE PUSH1 0x24 PUSH1 0x0 REVERT JUMPDEST PUSH1 0x20 ADD ADD MLOAD PUSH1 0xF8 SHR PUSH1 0xF8 SHL AND PUSH31 0xFFFFFFFFFFFFFFFFFFFFFFFFFFFFFFFFFFFFFFFFFFFFFFFFFFFFFFFFFFFFFF NOT AND SWAP1 SHR PUSH1 0xF PUSH1 0x0 DUP3 DUP3 SLOAD OR SWAP3 POP POP DUP2 SWAP1 SSTORE POP DUP5 DUP1 PUSH2 0x1D8A SWAP1 PUSH2 0x27FF JUMP JUMPDEST SWAP6 POP POP PUSH2 0x2046 JUMP JUMPDEST PUSH1 0x2 PUSH1 0x0 PUSH1 0xF SLOAD DUP2 MSTORE PUSH1 0x20 ADD SWAP1 DUP2 MSTORE PUSH1 0x20 ADD PUSH1 0x0 KECCAK256 SLOAD PUSH1 0x5 PUSH1 0x0 PUSH1 0xC SLOAD DUP2 MSTORE PUSH1 0x20 ADD SWAP1 DUP2 MSTORE PUSH1 0x20 ADD PUSH1 0x0 KECCAK256 PUSH1 0x0 DUP6 DUP1 PUSH2 0x1DCA SWAP1 PUSH2 0x27FF JUMP JUMPDEST SWAP7 POP DUP2 MSTORE PUSH1 0x20 ADD SWAP1 DUP2 MSTORE PUSH1 0x20 ADD PUSH1 0x0 KECCAK256 DUP2 SWAP1 SSTORE POP PUSH1 0x0 DUP1 SHL PUSH1 0xF DUP2 SWAP1 SSTORE POP PUSH1 0x0 SWAP5 POP PUSH1 0x2B PUSH1 0xF8 SHL DUP10 DUP3 DUP2 MLOAD DUP2 LT PUSH2 0x1E2A JUMPI PUSH32 0x4E487B7100000000000000000000000000000000000000000000000000000000 PUSH1 0x0 MSTORE PUSH1 0x32 PUSH1 0x4 MSTORE PUSH1 0x24 PUSH1 0x0 REVERT JUMPDEST PUSH1 0x20 ADD ADD MLOAD PUSH1 0xF8 SHR PUSH1 0xF8 SHL PUSH31 0xFFFFFFFFFFFFFFFFFFFFFFFFFFFFFFFFFFFFFFFFFFFFFFFFFFFFFFFFFFFFFF NOT AND EQ ISZERO PUSH2 0x1EB5 JUMPI PUSH1 0x1 PUSH1 0x40 MLOAD PUSH2 0x1E6B SWAP1 PUSH2 0x244E JUMP JUMPDEST SWAP1 DUP2 MSTORE PUSH1 0x20 ADD PUSH1 0x40 MLOAD DUP1 SWAP2 SUB SWAP1 KECCAK256 SLOAD PUSH1 0x6 PUSH1 0x0 PUSH1 0xC SLOAD DUP2 MSTORE PUSH1 0x20 ADD SWAP1 DUP2 MSTORE PUSH1 0x20 ADD PUSH1 0x0 KECCAK256 PUSH1 0x0 DUP5 DUP1 PUSH2 0x1E9C SWAP1 PUSH2 0x27FF JUMP JUMPDEST SWAP6 POP DUP2 MSTORE PUSH1 0x20 ADD SWAP1 DUP2 MSTORE PUSH1 0x20 ADD PUSH1 0x0 KECCAK256 DUP2 SWAP1 SSTORE POP PUSH2 0x2045 JUMP JUMPDEST PUSH1 0x2D PUSH1 0xF8 SHL DUP10 DUP3 DUP2 MLOAD DUP2 LT PUSH2 0x1EF3 JUMPI PUSH32 0x4E487B7100000000000000000000000000000000000000000000000000000000 PUSH1 0x0 MSTORE PUSH1 0x32 PUSH1 0x4 MSTORE PUSH1 0x24 PUSH1 0x0 REVERT JUMPDEST PUSH1 0x20 ADD ADD MLOAD PUSH1 0xF8 SHR PUSH1 0xF8 SHL PUSH31 0xFFFFFFFFFFFFFFFFFFFFFFFFFFFFFFFFFFFFFFFFFFFFFFFFFFFFFFFFFFFFFF NOT AND EQ ISZERO PUSH2 0x1F7E JUMPI PUSH1 0x1 PUSH1 0x40 MLOAD PUSH2 0x1F34 SWAP1 PUSH2 0x24B7 JUMP JUMPDEST SWAP1 DUP2 MSTORE PUSH1 0x20 ADD PUSH1 0x40 MLOAD DUP1 SWAP2 SUB SWAP1 KECCAK256 SLOAD PUSH1 0x6 PUSH1 0x0 PUSH1 0xC SLOAD DUP2 MSTORE PUSH1 0x20 ADD SWAP1 DUP2 MSTORE PUSH1 0x20 ADD PUSH1 0x0 KECCAK256 PUSH1 0x0 DUP5 DUP1 PUSH2 0x1F65 SWAP1 PUSH2 0x27FF JUMP JUMPDEST SWAP6 POP DUP2 MSTORE PUSH1 0x20 ADD SWAP1 DUP2 MSTORE PUSH1 0x20 ADD PUSH1 0x0 KECCAK256 DUP2 SWAP1 SSTORE POP PUSH2 0x2044 JUMP JUMPDEST PUSH1 0x3D PUSH1 0xF8 SHL DUP10 DUP3 DUP2 MLOAD DUP2 LT PUSH2 0x1FBC JUMPI PUSH32 0x4E487B7100000000000000000000000000000000000000000000000000000000 PUSH1 0x0 MSTORE PUSH1 0x32 PUSH1 0x4 MSTORE PUSH1 0x24 PUSH1 0x0 REVERT JUMPDEST PUSH1 0x20 ADD ADD MLOAD PUSH1 0xF8 SHR PUSH1 0xF8 SHL PUSH31 0xFFFFFFFFFFFFFFFFFFFFFFFFFFFFFFFFFFFFFFFFFFFFFFFFFFFFFFFFFFFFFF NOT AND EQ ISZERO PUSH2 0x2043 JUMPI PUSH1 0x1 PUSH1 0x40 MLOAD PUSH2 0x1FFD SWAP1 PUSH2 0x24E1 JUMP JUMPDEST SWAP1 DUP2 MSTORE PUSH1 0x20 ADD PUSH1 0x40 MLOAD DUP1 SWAP2 SUB SWAP1 KECCAK256 SLOAD PUSH1 0x6 PUSH1 0x0 PUSH1 0xC SLOAD DUP2 MSTORE PUSH1 0x20 ADD SWAP1 DUP2 MSTORE PUSH1 0x20 ADD PUSH1 0x0 KECCAK256 PUSH1 0x0 DUP5 DUP1 PUSH2 0x202E SWAP1 PUSH2 0x27FF JUMP JUMPDEST SWAP6 POP DUP2 MSTORE PUSH1 0x20 ADD SWAP1 DUP2 MSTORE PUSH1 0x20 ADD PUSH1 0x0 KECCAK256 DUP2 SWAP1 SSTORE POP JUMPDEST JUMPDEST JUMPDEST JUMPDEST PUSH1 0x5 SWAP4 POP JUMPDEST JUMPDEST JUMPDEST JUMPDEST JUMPDEST JUMPDEST JUMPDEST JUMPDEST DUP1 DUP1 PUSH2 0x205D SWAP1 PUSH2 0x27FF JUMP JUMPDEST SWAP2 POP POP PUSH2 0x916 JUMP JUMPDEST POP POP POP POP POP POP POP POP POP JUMP JUMPDEST PUSH1 0x40 MLOAD DUP1 PUSH1 0xA0 ADD PUSH1 0x40 MSTORE DUP1 PUSH1 0x0 DUP2 MSTORE PUSH1 0x20 ADD PUSH1 0x60 DUP2 MSTORE PUSH1 0x20 ADD PUSH1 0x60 DUP2 MSTORE PUSH1 0x20 ADD PUSH1 0x0 ISZERO ISZERO DUP2 MSTORE PUSH1 0x20 ADD PUSH1 0x0 DUP2 MSTORE POP SWAP1 JUMP JUMPDEST DUP3 DUP1 SLOAD PUSH2 0x20AD SWAP1 PUSH2 0x279C JUMP JUMPDEST SWAP1 PUSH1 0x0 MSTORE PUSH1 0x20 PUSH1 0x0 KECCAK256 SWAP1 PUSH1 0x1F ADD PUSH1 0x20 SWAP1 DIV DUP2 ADD SWAP3 DUP3 PUSH2 0x20CF JUMPI PUSH1 0x0 DUP6 SSTORE PUSH2 0x2116 JUMP JUMPDEST DUP3 PUSH1 0x1F LT PUSH2 0x20E8 JUMPI DUP1 MLOAD PUSH1 0xFF NOT AND DUP4 DUP1 ADD OR DUP6 SSTORE PUSH2 0x2116 JUMP JUMPDEST DUP3 DUP1 ADD PUSH1 0x1 ADD DUP6 SSTORE DUP3 ISZERO PUSH2 0x2116 JUMPI SWAP2 DUP3 ADD JUMPDEST DUP3 DUP2 GT ISZERO PUSH2 0x2115 JUMPI DUP3 MLOAD DUP3 SSTORE SWAP2 PUSH1 0x20 ADD SWAP2 SWAP1 PUSH1 0x1 ADD SWAP1 PUSH2 0x20FA JUMP JUMPDEST JUMPDEST POP SWAP1 POP PUSH2 0x2123 SWAP2 SWAP1 PUSH2 0x2127 JUMP JUMPDEST POP SWAP1 JUMP JUMPDEST JUMPDEST DUP1 DUP3 GT ISZERO PUSH2 0x2140 JUMPI PUSH1 0x0 DUP2 PUSH1 0x0 SWAP1 SSTORE POP PUSH1 0x1 ADD PUSH2 0x2128 JUMP JUMPDEST POP SWAP1 JUMP JUMPDEST PUSH1 0x0 PUSH2 0x2157 PUSH2 0x2152 DUP5 PUSH2 0x25CD JUMP JUMPDEST PUSH2 0x25A8 JUMP JUMPDEST SWAP1 POP DUP3 DUP2 MSTORE PUSH1 0x20 DUP2 ADD DUP5 DUP5 DUP5 ADD GT ISZERO PUSH2 0x216F JUMPI PUSH1 0x0 DUP1 REVERT JUMPDEST PUSH2 0x217A DUP5 DUP3 DUP6 PUSH2 0x275A JUMP JUMPDEST POP SWAP4 SWAP3 POP POP POP JUMP JUMPDEST PUSH1 0x0 DUP2 CALLDATALOAD SWAP1 POP PUSH2 0x2191 DUP2 PUSH2 0x2A5D JUMP JUMPDEST SWAP3 SWAP2 POP POP JUMP JUMPDEST PUSH1 0x0 DUP3 PUSH1 0x1F DUP4 ADD SLT PUSH2 0x21A8 JUMPI PUSH1 0x0 DUP1 REVERT JUMPDEST DUP2 CALLDATALOAD PUSH2 0x21B8 DUP5 DUP3 PUSH1 0x20 DUP7 ADD PUSH2 0x2144 JUMP JUMPDEST SWAP2 POP POP SWAP3 SWAP2 POP POP JUMP JUMPDEST PUSH1 0x0 DUP2 CALLDATALOAD SWAP1 POP PUSH2 0x21D0 DUP2 PUSH2 0x2A74 JUMP JUMPDEST SWAP3 SWAP2 POP POP JUMP JUMPDEST PUSH1 0x0 PUSH1 0x20 DUP3 DUP5 SUB SLT ISZERO PUSH2 0x21E8 JUMPI PUSH1 0x0 DUP1 REVERT JUMPDEST PUSH1 0x0 PUSH2 0x21F6 DUP5 DUP3 DUP6 ADD PUSH2 0x2182 JUMP JUMPDEST SWAP2 POP POP SWAP3 SWAP2 POP POP JUMP JUMPDEST PUSH1 0x0 DUP1 PUSH1 0x40 DUP4 DUP6 SUB SLT ISZERO PUSH2 0x2212 JUMPI PUSH1 0x0 DUP1 REVERT JUMPDEST PUSH1 0x0 DUP4 ADD CALLDATALOAD PUSH8 0xFFFFFFFFFFFFFFFF DUP2 GT ISZERO PUSH2 0x222C JUMPI PUSH1 0x0 DUP1 REVERT JUMPDEST PUSH2 0x2238 DUP6 DUP3 DUP7 ADD PUSH2 0x2197 JUMP JUMPDEST SWAP3 POP POP PUSH1 0x20 DUP4 ADD CALLDATALOAD PUSH8 0xFFFFFFFFFFFFFFFF DUP2 GT ISZERO PUSH2 0x2255 JUMPI PUSH1 0x0 DUP1 REVERT JUMPDEST PUSH2 0x2261 DUP6 DUP3 DUP7 ADD PUSH2 0x2197 JUMP JUMPDEST SWAP2 POP POP SWAP3 POP SWAP3 SWAP1 POP JUMP JUMPDEST PUSH1 0x0 PUSH1 0x20 DUP3 DUP5 SUB SLT ISZERO PUSH2 0x227D JUMPI PUSH1 0x0 DUP1 REVERT JUMPDEST PUSH1 0x0 PUSH2 0x228B DUP5 DUP3 DUP6 ADD PUSH2 0x21C1 JUMP JUMPDEST SWAP2 POP POP SWAP3 SWAP2 POP POP JUMP JUMPDEST PUSH1 0x0 DUP1 PUSH1 0x40 DUP4 DUP6 SUB SLT ISZERO PUSH2 0x22A7 JUMPI PUSH1 0x0 DUP1 REVERT JUMPDEST PUSH1 0x0 PUSH2 0x22B5 DUP6 DUP3 DUP7 ADD PUSH2 0x21C1 JUMP JUMPDEST SWAP3 POP POP PUSH1 0x20 PUSH2 0x22C6 DUP6 DUP3 DUP7 ADD PUSH2 0x21C1 JUMP JUMPDEST SWAP2 POP POP SWAP3 POP SWAP3 SWAP1 POP JUMP JUMPDEST PUSH2 0x22D9 DUP2 PUSH2 0x273A JUMP JUMPDEST DUP3 MSTORE POP POP JUMP JUMPDEST PUSH2 0x22E8 DUP2 PUSH2 0x2746 JUMP JUMPDEST DUP3 MSTORE POP POP JUMP JUMPDEST PUSH1 0x0 PUSH2 0x22F9 DUP3 PUSH2 0x25FE JUMP JUMPDEST PUSH2 0x2303 DUP2 DUP6 PUSH2 0x2609 JUMP JUMPDEST SWAP4 POP PUSH2 0x2313 DUP2 DUP6 PUSH1 0x20 DUP7 ADD PUSH2 0x2769 JUMP JUMPDEST PUSH2 0x231C DUP2 PUSH2 0x2904 JUMP JUMPDEST DUP5 ADD SWAP2 POP POP SWAP3 SWAP2 POP POP JUMP JUMPDEST PUSH1 0x0 PUSH2 0x2334 PUSH1 0x1 DUP4 PUSH2 0x261A JUMP JUMPDEST SWAP2 POP PUSH2 0x233F DUP3 PUSH2 0x2915 JUMP JUMPDEST PUSH1 0x1 DUP3 ADD SWAP1 POP SWAP2 SWAP1 POP JUMP JUMPDEST PUSH1 0x0 PUSH2 0x2357 PUSH1 0x3 DUP4 PUSH2 0x261A JUMP JUMPDEST SWAP2 POP PUSH2 0x2362 DUP3 PUSH2 0x293E JUMP JUMPDEST PUSH1 0x3 DUP3 ADD SWAP1 POP SWAP2 SWAP1 POP JUMP JUMPDEST PUSH1 0x0 PUSH2 0x237A PUSH1 0x6 DUP4 PUSH2 0x261A JUMP JUMPDEST SWAP2 POP PUSH2 0x2385 DUP3 PUSH2 0x2967 JUMP JUMPDEST PUSH1 0x6 DUP3 ADD SWAP1 POP SWAP2 SWAP1 POP JUMP JUMPDEST PUSH1 0x0 PUSH2 0x239D PUSH1 0x5 DUP4 PUSH2 0x261A JUMP JUMPDEST SWAP2 POP PUSH2 0x23A8 DUP3 PUSH2 0x2990 JUMP JUMPDEST PUSH1 0x5 DUP3 ADD SWAP1 POP SWAP2 SWAP1 POP JUMP JUMPDEST PUSH1 0x0 PUSH2 0x23C0 PUSH1 0x4 DUP4 PUSH2 0x261A JUMP JUMPDEST SWAP2 POP PUSH2 0x23CB DUP3 PUSH2 0x29B9 JUMP JUMPDEST PUSH1 0x4 DUP3 ADD SWAP1 POP SWAP2 SWAP1 POP JUMP JUMPDEST PUSH1 0x0 PUSH2 0x23E3 PUSH1 0x1 DUP4 PUSH2 0x261A JUMP JUMPDEST SWAP2 POP PUSH2 0x23EE DUP3 PUSH2 0x29E2 JUMP JUMPDEST PUSH1 0x1 DUP3 ADD SWAP1 POP SWAP2 SWAP1 POP JUMP JUMPDEST PUSH1 0x0 PUSH2 0x2406 PUSH1 0x5 DUP4 PUSH2 0x261A JUMP JUMPDEST SWAP2 POP PUSH2 0x2411 DUP3 PUSH2 0x2A0B JUMP JUMPDEST PUSH1 0x5 DUP3 ADD SWAP1 POP SWAP2 SWAP1 POP JUMP JUMPDEST PUSH1 0x0 PUSH2 0x2429 PUSH1 0x1 DUP4 PUSH2 0x261A JUMP JUMPDEST SWAP2 POP PUSH2 0x2434 DUP3 PUSH2 0x2A34 JUMP JUMPDEST PUSH1 0x1 DUP3 ADD SWAP1 POP SWAP2 SWAP1 POP JUMP JUMPDEST PUSH2 0x2448 DUP2 PUSH2 0x2750 JUMP JUMPDEST DUP3 MSTORE POP POP JUMP JUMPDEST PUSH1 0x0 PUSH2 0x2459 DUP3 PUSH2 0x2327 JUMP JUMPDEST SWAP2 POP DUP2 SWAP1 POP SWAP2 SWAP1 POP JUMP JUMPDEST PUSH1 0x0 PUSH2 0x246E DUP3 PUSH2 0x234A JUMP JUMPDEST SWAP2 POP DUP2 SWAP1 POP SWAP2 SWAP1 POP JUMP JUMPDEST PUSH1 0x0 PUSH2 0x2483 DUP3 PUSH2 0x236D JUMP JUMPDEST SWAP2 POP DUP2 SWAP1 POP SWAP2 SWAP1 POP JUMP JUMPDEST PUSH1 0x0 PUSH2 0x2498 DUP3 PUSH2 0x2390 JUMP JUMPDEST SWAP2 POP DUP2 SWAP1 POP SWAP2 SWAP1 POP JUMP JUMPDEST PUSH1 0x0 PUSH2 0x24AD DUP3 PUSH2 0x23B3 JUMP JUMPDEST SWAP2 POP DUP2 SWAP1 POP SWAP2 SWAP1 POP JUMP JUMPDEST PUSH1 0x0 PUSH2 0x24C2 DUP3 PUSH2 0x23D6 JUMP JUMPDEST SWAP2 POP DUP2 SWAP1 POP SWAP2 SWAP1 POP JUMP JUMPDEST PUSH1 0x0 PUSH2 0x24D7 DUP3 PUSH2 0x23F9 JUMP JUMPDEST SWAP2 POP DUP2 SWAP1 POP SWAP2 SWAP1 POP JUMP JUMPDEST PUSH1 0x0 PUSH2 0x24EC DUP3 PUSH2 0x241C JUMP JUMPDEST SWAP2 POP DUP2 SWAP1 POP SWAP2 SWAP1 POP JUMP JUMPDEST PUSH1 0x0 PUSH1 0x20 DUP3 ADD SWAP1 POP PUSH2 0x250B PUSH1 0x0 DUP4 ADD DUP5 PUSH2 0x22D0 JUMP JUMPDEST SWAP3 SWAP2 POP POP JUMP JUMPDEST PUSH1 0x0 PUSH1 0x20 DUP3 ADD SWAP1 POP PUSH2 0x2526 PUSH1 0x0 DUP4 ADD DUP5 PUSH2 0x22DF JUMP JUMPDEST SWAP3 SWAP2 POP POP JUMP JUMPDEST PUSH1 0x0 PUSH1 0x20 DUP3 ADD SWAP1 POP PUSH2 0x2541 PUSH1 0x0 DUP4 ADD DUP5 PUSH2 0x243F JUMP JUMPDEST SWAP3 SWAP2 POP POP JUMP JUMPDEST PUSH1 0x0 PUSH1 0xA0 DUP3 ADD SWAP1 POP PUSH2 0x255C PUSH1 0x0 DUP4 ADD DUP9 PUSH2 0x243F JUMP JUMPDEST DUP2 DUP2 SUB PUSH1 0x20 DUP4 ADD MSTORE PUSH2 0x256E DUP2 DUP8 PUSH2 0x22EE JUMP JUMPDEST SWAP1 POP DUP2 DUP2 SUB PUSH1 0x40 DUP4 ADD MSTORE PUSH2 0x2582 DUP2 DUP7 PUSH2 0x22EE JUMP JUMPDEST SWAP1 POP PUSH2 0x2591 PUSH1 0x60 DUP4 ADD DUP6 PUSH2 0x22D0 JUMP JUMPDEST PUSH2 0x259E PUSH1 0x80 DUP4 ADD DUP5 PUSH2 0x243F JUMP JUMPDEST SWAP7 SWAP6 POP POP POP POP POP POP JUMP JUMPDEST PUSH1 0x0 PUSH2 0x25B2 PUSH2 0x25C3 JUMP JUMPDEST SWAP1 POP PUSH2 0x25BE DUP3 DUP3 PUSH2 0x27CE JUMP JUMPDEST SWAP2 SWAP1 POP JUMP JUMPDEST PUSH1 0x0 PUSH1 0x40 MLOAD SWAP1 POP SWAP1 JUMP JUMPDEST PUSH1 0x0 PUSH8 0xFFFFFFFFFFFFFFFF DUP3 GT ISZERO PUSH2 0x25E8 JUMPI PUSH2 0x25E7 PUSH2 0x28D5 JUMP JUMPDEST JUMPDEST PUSH2 0x25F1 DUP3 PUSH2 0x2904 JUMP JUMPDEST SWAP1 POP PUSH1 0x20 DUP2 ADD SWAP1 POP SWAP2 SWAP1 POP JUMP JUMPDEST PUSH1 0x0 DUP2 MLOAD SWAP1 POP SWAP2 SWAP1 POP JUMP JUMPDEST PUSH1 0x0 DUP3 DUP3 MSTORE PUSH1 0x20 DUP3 ADD SWAP1 POP SWAP3 SWAP2 POP POP JUMP JUMPDEST PUSH1 0x0 DUP2 SWAP1 POP SWAP3 SWAP2 POP POP JUMP JUMPDEST PUSH1 0x0 PUSH2 0x2630 DUP3 PUSH2 0x2750 JUMP JUMPDEST SWAP2 POP PUSH2 0x263B DUP4 PUSH2 0x2750 JUMP JUMPDEST SWAP3 POP DUP3 PUSH32 0xFFFFFFFFFFFFFFFFFFFFFFFFFFFFFFFFFFFFFFFFFFFFFFFFFFFFFFFFFFFFFFFF SUB DUP3 GT ISZERO PUSH2 0x2670 JUMPI PUSH2 0x266F PUSH2 0x2848 JUMP JUMPDEST JUMPDEST DUP3 DUP3 ADD SWAP1 POP SWAP3 SWAP2 POP POP JUMP JUMPDEST PUSH1 0x0 PUSH2 0x2686 DUP3 PUSH2 0x2750 JUMP JUMPDEST SWAP2 POP PUSH2 0x2691 DUP4 PUSH2 0x2750 JUMP JUMPDEST SWAP3 POP DUP3 PUSH2 0x26A1 JUMPI PUSH2 0x26A0 PUSH2 0x2877 JUMP JUMPDEST JUMPDEST DUP3 DUP3 DIV SWAP1 POP SWAP3 SWAP2 POP POP JUMP JUMPDEST PUSH1 0x0 PUSH2 0x26B7 DUP3 PUSH2 0x2750 JUMP JUMPDEST SWAP2 POP PUSH2 0x26C2 DUP4 PUSH2 0x2750 JUMP JUMPDEST SWAP3 POP DUP2 PUSH32 0xFFFFFFFFFFFFFFFFFFFFFFFFFFFFFFFFFFFFFFFFFFFFFFFFFFFFFFFFFFFFFFFF DIV DUP4 GT DUP3 ISZERO ISZERO AND ISZERO PUSH2 0x26FB JUMPI PUSH2 0x26FA PUSH2 0x2848 JUMP JUMPDEST JUMPDEST DUP3 DUP3 MUL SWAP1 POP SWAP3 SWAP2 POP POP JUMP JUMPDEST PUSH1 0x0 PUSH2 0x2711 DUP3 PUSH2 0x2750 JUMP JUMPDEST SWAP2 POP PUSH2 0x271C DUP4 PUSH2 0x2750 JUMP JUMPDEST SWAP3 POP DUP3 DUP3 LT ISZERO PUSH2 0x272F JUMPI PUSH2 0x272E PUSH2 0x2848 JUMP JUMPDEST JUMPDEST DUP3 DUP3 SUB SWAP1 POP SWAP3 SWAP2 POP POP JUMP JUMPDEST PUSH1 0x0 DUP2 ISZERO ISZERO SWAP1 POP SWAP2 SWAP1 POP JUMP JUMPDEST PUSH1 0x0 DUP2 SWAP1 POP SWAP2 SWAP1 POP JUMP JUMPDEST PUSH1 0x0 DUP2 SWAP1 POP SWAP2 SWAP1 POP JUMP JUMPDEST DUP3 DUP2 DUP4 CALLDATACOPY PUSH1 0x0 DUP4 DUP4 ADD MSTORE POP POP POP JUMP JUMPDEST PUSH1 0x0 JUMPDEST DUP4 DUP2 LT ISZERO PUSH2 0x2787 JUMPI DUP1 DUP3 ADD MLOAD DUP2 DUP5 ADD MSTORE PUSH1 0x20 DUP2 ADD SWAP1 POP PUSH2 0x276C JUMP JUMPDEST DUP4 DUP2 GT ISZERO PUSH2 0x2796 JUMPI PUSH1 0x0 DUP5 DUP5 ADD MSTORE JUMPDEST POP POP POP POP JUMP JUMPDEST PUSH1 0x0 PUSH1 0x2 DUP3 DIV SWAP1 POP PUSH1 0x1 DUP3 AND DUP1 PUSH2 0x27B4 JUMPI PUSH1 0x7F DUP3 AND SWAP2 POP JUMPDEST PUSH1 0x20 DUP3 LT DUP2 EQ ISZERO PUSH2 0x27C8 JUMPI PUSH2 0x27C7 PUSH2 0x28A6 JUMP JUMPDEST JUMPDEST POP SWAP2 SWAP1 POP JUMP JUMPDEST PUSH2 0x27D7 DUP3 PUSH2 0x2904 JUMP JUMPDEST DUP2 ADD DUP2 DUP2 LT PUSH8 0xFFFFFFFFFFFFFFFF DUP3 GT OR ISZERO PUSH2 0x27F6 JUMPI PUSH2 0x27F5 PUSH2 0x28D5 JUMP JUMPDEST JUMPDEST DUP1 PUSH1 0x40 MSTORE POP POP POP JUMP JUMPDEST PUSH1 0x0 PUSH2 0x280A DUP3 PUSH2 0x2750 JUMP JUMPDEST SWAP2 POP PUSH32 0xFFFFFFFFFFFFFFFFFFFFFFFFFFFFFFFFFFFFFFFFFFFFFFFFFFFFFFFFFFFFFFFF DUP3 EQ ISZERO PUSH2 0x283D JUMPI PUSH2 0x283C PUSH2 0x2848 JUMP JUMPDEST JUMPDEST PUSH1 0x1 DUP3 ADD SWAP1 POP SWAP2 SWAP1 POP JUMP JUMPDEST PUSH32 0x4E487B7100000000000000000000000000000000000000000000000000000000 PUSH1 0x0 MSTORE PUSH1 0x11 PUSH1 0x4 MSTORE PUSH1 0x24 PUSH1 0x0 REVERT JUMPDEST PUSH32 0x4E487B7100000000000000000000000000000000000000000000000000000000 PUSH1 0x0 MSTORE PUSH1 0x12 PUSH1 0x4 MSTORE PUSH1 0x24 PUSH1 0x0 REVERT JUMPDEST PUSH32 0x4E487B7100000000000000000000000000000000000000000000000000000000 PUSH1 0x0 MSTORE PUSH1 0x22 PUSH1 0x4 MSTORE PUSH1 0x24 PUSH1 0x0 REVERT JUMPDEST PUSH32 0x4E487B7100000000000000000000000000000000000000000000000000000000 PUSH1 0x0 MSTORE PUSH1 0x41 PUSH1 0x4 MSTORE PUSH1 0x24 PUSH1 0x0 REVERT JUMPDEST PUSH1 0x0 PUSH1 0x1F NOT PUSH1 0x1F DUP4 ADD AND SWAP1 POP SWAP2 SWAP1 POP JUMP JUMPDEST PUSH32 0x2B00000000000000000000000000000000000000000000000000000000000000 PUSH1 0x0 DUP3 ADD MSTORE POP JUMP JUMPDEST PUSH32 0x696E740000000000000000000000000000000000000000000000000000000000 PUSH1 0x0 DUP3 ADD MSTORE POP JUMP JUMPDEST PUSH32 0x7072696E74660000000000000000000000000000000000000000000000000000 PUSH1 0x0 DUP3 ADD MSTORE POP JUMP JUMPDEST PUSH32 0x666C6F6174000000000000000000000000000000000000000000000000000000 PUSH1 0x0 DUP3 ADD MSTORE POP JUMP JUMPDEST PUSH32 0x6D61696E00000000000000000000000000000000000000000000000000000000 PUSH1 0x0 DUP3 ADD MSTORE POP JUMP JUMPDEST PUSH32 0x2D00000000000000000000000000000000000000000000000000000000000000 PUSH1 0x0 DUP3 ADD MSTORE POP JUMP JUMPDEST PUSH32 0x7363616E66000000000000000000000000000000000000000000000000000000 PUSH1 0x0 DUP3 ADD MSTORE POP JUMP JUMPDEST PUSH32 0x3D00000000000000000000000000000000000000000000000000000000000000 PUSH1 0x0 DUP3 ADD MSTORE POP JUMP JUMPDEST PUSH2 0x2A66 DUP2 PUSH2 0x2746 JUMP JUMPDEST DUP2 EQ PUSH2 0x2A71 JUMPI PUSH1 0x0 DUP1 REVERT JUMPDEST POP JUMP JUMPDEST PUSH2 0x2A7D DUP2 PUSH2 0x2750 JUMP JUMPDEST DUP2 EQ PUSH2 0x2A88 JUMPI PUSH1 0x0 DUP1 REVERT JUMPDEST POP JUMP INVALID LOG2 PUSH5 0x6970667358 0x22 SLT KECCAK256 0xD2 MULMOD PC 0xB1 0xB0 BYTE SWAP16 0xC9 SWAP14 GAS 0xD0 REVERT COINBASE 0xED LOG1 0xDD PUSH14 0x36B9636C328C3C904DA984F44346 LOG3 PUSH5 0x736F6C6343 STOP ADDMOD SUB STOP CALLER "
        },
        "methodIdentifiers": {
          "c()": "c3da42b8",
          "code_similarity()": "c4e2908d",
          "d()": "8a054ac2",
          "e()": "ffae15ba",
          "eqn_count()": "397e5789",
          "eqn_map(uint256)": "6390bb13",
          "eqn_sym(uint256,uint256)": "08188f00",
          "eqn_var(uint256,uint256)": "62830cdc",
          "getSimilarity(string,string)": "4d787d45",
          "st_count()": "66c92d0b",
          "st_map(uint256)": "8897b75a",
          "uni_eqn_count()": "535e70f3",
          "uni_st_count()": "29104c28",
          "var_name()": "a908c8e0",
          "var_ref(bytes32)": "4556ae7b"
        }
      }
    }
  }
}