{
  "_format": "hh-sol-artifact-1",
  "contractName": "Greeter",
  "sourceName": "contracts/Greeter.sol",
  "abi": [
    {
      "inputs": [
        {
          "internalType": "string",
          "name": "_greeting",
          "type": "string"
        }
      ],
      "stateMutability": "nonpayable",
      "type": "constructor"
    },
    {
      "inputs": [
        {
          "internalType": "uint256",
          "name": "a",
          "type": "uint256"
        }
      ],
      "name": "foo",
      "outputs": [
        {
          "internalType": "uint256",
          "name": "",
          "type": "uint256"
        }
      ],
      "stateMutability": "nonpayable",
      "type": "function"
    },
    {
      "inputs": [],
      "name": "greet",
      "outputs": [
        {
          "internalType": "string",
          "name": "",
          "type": "string"
        }
      ],
      "stateMutability": "view",
      "type": "function"
    },
    {
      "inputs": [
        {
          "internalType": "string",
          "name": "_greeting",
          "type": "string"
        }
      ],
      "name": "setGreeting",
      "outputs": [],
      "stateMutability": "nonpayable",
      "type": "function"
    }
  ],
  "bytecode": "0x60806040523480156200001157600080fd5b5060405162000d9138038062000d91833981810160405281019062000037919062000278565b6200006760405180606001604052806022815260200162000d6f60229139826200008760201b6200021f1760201c565b80600090805190602001906200007f92919062000156565b5050620004c5565b620001298282604051602401620000a0929190620002fe565b6040516020818303038152906040527f4b5c4277000000000000000000000000000000000000000000000000000000007bffffffffffffffffffffffffffffffffffffffffffffffffffffffff19166020820180517bffffffffffffffffffffffffffffffffffffffffffffffffffffffff83818316178352505050506200012d60201b60201c565b5050565b60008151905060006a636f6e736f6c652e6c6f679050602083016000808483855afa5050505050565b8280546200016490620003ea565b90600052602060002090601f016020900481019282620001885760008555620001d4565b82601f10620001a357805160ff1916838001178555620001d4565b82800160010185558215620001d4579182015b82811115620001d3578251825591602001919060010190620001b6565b5b509050620001e39190620001e7565b5090565b5b8082111562000202576000816000905550600101620001e8565b5090565b60006200021d620002178462000362565b62000339565b9050828152602081018484840111156200023657600080fd5b62000243848285620003b4565b509392505050565b600082601f8301126200025d57600080fd5b81516200026f84826020860162000206565b91505092915050565b6000602082840312156200028b57600080fd5b600082015167ffffffffffffffff811115620002a657600080fd5b620002b4848285016200024b565b91505092915050565b6000620002ca8262000398565b620002d68185620003a3565b9350620002e8818560208601620003b4565b620002f381620004b4565b840191505092915050565b600060408201905081810360008301526200031a8185620002bd565b90508181036020830152620003308184620002bd565b90509392505050565b60006200034562000358565b905062000353828262000420565b919050565b6000604051905090565b600067ffffffffffffffff82111562000380576200037f62000485565b5b6200038b82620004b4565b9050602081019050919050565b600081519050919050565b600082825260208201905092915050565b60005b83811015620003d4578082015181840152602081019050620003b7565b83811115620003e4576000848401525b50505050565b600060028204905060018216806200040357607f821691505b602082108114156200041a576200041962000456565b5b50919050565b6200042b82620004b4565b810181811067ffffffffffffffff821117156200044d576200044c62000485565b5b80604052505050565b7f4e487b7100000000000000000000000000000000000000000000000000000000600052602260045260246000fd5b7f4e487b7100000000000000000000000000000000000000000000000000000000600052604160045260246000fd5b6000601f19601f8301169050919050565b61089a80620004d56000396000f3fe608060405234801561001057600080fd5b50600436106100415760003560e01c80632fbebd3814610046578063a413686214610076578063cfae321714610092575b600080fd5b610060600480360381019061005b91906104e4565b6100b0565b60405161006d91906105fa565b60405180910390f35b610090600480360381019061008b91906104a3565b6100c6565b005b61009a61018d565b6040516100a79190610555565b60405180910390f35b60006001826100bf9190610687565b9050919050565b61017360405180606001604052806023815260200161084260239139600080546100ef90610729565b80601f016020809104026020016040519081016040528092919081815260200182805461011b90610729565b80156101685780601f1061013d57610100808354040283529160200191610168565b820191906000526020600020905b81548152906001019060200180831161014b57829003601f168201915b5050505050836102bb565b8060009080519060200190610189929190610383565b5050565b60606000805461019c90610729565b80601f01602080910402602001604051908101604052809291908181526020018280546101c890610729565b80156102155780601f106101ea57610100808354040283529160200191610215565b820191906000526020600020905b8154815290600101906020018083116101f857829003601f168201915b5050505050905090565b6102b78282604051602401610235929190610577565b6040516020818303038152906040527f4b5c4277000000000000000000000000000000000000000000000000000000007bffffffffffffffffffffffffffffffffffffffffffffffffffffffff19166020820180517bffffffffffffffffffffffffffffffffffffffffffffffffffffffff838183161783525050505061035a565b5050565b6103558383836040516024016102d3939291906105ae565b6040516020818303038152906040527f2ced7cef000000000000000000000000000000000000000000000000000000007bffffffffffffffffffffffffffffffffffffffffffffffffffffffff19166020820180517bffffffffffffffffffffffffffffffffffffffffffffffffffffffff838183161783525050505061035a565b505050565b60008151905060006a636f6e736f6c652e6c6f679050602083016000808483855afa5050505050565b82805461038f90610729565b90600052602060002090601f0160209004810192826103b157600085556103f8565b82601f106103ca57805160ff19168380011785556103f8565b828001600101855582156103f8579182015b828111156103f75782518255916020019190600101906103dc565b5b5090506104059190610409565b5090565b5b8082111561042257600081600090555060010161040a565b5090565b60006104396104348461063a565b610615565b90508281526020810184848401111561045157600080fd5b61045c8482856106e7565b509392505050565b600082601f83011261047557600080fd5b8135610485848260208601610426565b91505092915050565b60008135905061049d8161082a565b92915050565b6000602082840312156104b557600080fd5b600082013567ffffffffffffffff8111156104cf57600080fd5b6104db84828501610464565b91505092915050565b6000602082840312156104f657600080fd5b60006105048482850161048e565b91505092915050565b60006105188261066b565b6105228185610676565b93506105328185602086016106f6565b61053b81610819565b840191505092915050565b61054f816106dd565b82525050565b6000602082019050818103600083015261056f818461050d565b905092915050565b60006040820190508181036000830152610591818561050d565b905081810360208301526105a5818461050d565b90509392505050565b600060608201905081810360008301526105c8818661050d565b905081810360208301526105dc818561050d565b905081810360408301526105f0818461050d565b9050949350505050565b600060208201905061060f6000830184610546565b92915050565b600061061f610630565b905061062b828261075b565b919050565b6000604051905090565b600067ffffffffffffffff821115610655576106546107ea565b5b61065e82610819565b9050602081019050919050565b600081519050919050565b600082825260208201905092915050565b6000610692826106dd565b915061069d836106dd565b9250827fffffffffffffffffffffffffffffffffffffffffffffffffffffffffffffffff038211156106d2576106d161078c565b5b828201905092915050565b6000819050919050565b82818337600083830152505050565b60005b838110156107145780820151818401526020810190506106f9565b83811115610723576000848401525b50505050565b6000600282049050600182168061074157607f821691505b60208210811415610755576107546107bb565b5b50919050565b61076482610819565b810181811067ffffffffffffffff82111715610783576107826107ea565b5b80604052505050565b7f4e487b7100000000000000000000000000000000000000000000000000000000600052601160045260246000fd5b7f4e487b7100000000000000000000000000000000000000000000000000000000600052602260045260246000fd5b7f4e487b7100000000000000000000000000000000000000000000000000000000600052604160045260246000fd5b6000601f19601f8301169050919050565b610833816106dd565b811461083e57600080fd5b5056fe4368616e67696e67206772656574696e672066726f6d202725732720746f2027257327a26469706673582212209debb48ecab398456defe109ad1c760bdc2c0cd5b12a29b942d917d8727a153264736f6c634300080300334465706c6f79696e67206120477265657465722077697468206772656574696e673a",
  "linkReferences": {},
  "deployedLinkReferences": {}
}